{
  "contractName": "DocAuthDB",
  "abi": [
    {
      "constant": false,
      "inputs": [
        {
          "name": "dougAddr",
          "type": "address"
        }
      ],
      "name": "setDOUGAddress",
      "outputs": [
        {
          "name": "result",
          "type": "bool"
        }
      ],
      "payable": false,
      "stateMutability": "nonpayable",
      "type": "function"
    },
    {
      "constant": false,
      "inputs": [],
      "name": "remove",
      "outputs": [],
      "payable": false,
      "stateMutability": "nonpayable",
      "type": "function"
    },
    {
      "constant": true,
      "inputs": [
        {
          "name": "_hash",
          "type": "bytes32"
        }
      ],
      "name": "getDocument",
      "outputs": [
        {
          "name": "",
          "type": "bytes32"
        },
        {
          "name": "",
          "type": "bytes32"
        },
        {
          "name": "",
          "type": "bytes32"
        },
        {
          "name": "",
          "type": "uint256"
        },
        {
          "name": "",
          "type": "uint256"
        },
        {
          "name": "",
          "type": "bool"
        }
      ],
      "payable": false,
      "stateMutability": "view",
      "type": "function"
    },
    {
      "constant": false,
      "inputs": [
        {
          "name": "_hash",
          "type": "bytes32"
        },
        {
          "name": "_author",
          "type": "bytes32"
        },
        {
          "name": "_title",
          "type": "bytes32"
        },
        {
          "name": "_email",
          "type": "bytes32"
        },
        {
          "name": "_dateWritten",
          "type": "uint256"
        }
      ],
      "name": "register",
      "outputs": [
        {
          "name": "",
          "type": "bool"
        }
      ],
      "payable": false,
      "stateMutability": "nonpayable",
      "type": "function"
    },
    {
      "constant": true,
      "inputs": [
        {
          "name": "_hash",
          "type": "bytes32"
        }
      ],
      "name": "isDocumentRegistered",
      "outputs": [
        {
          "name": "",
          "type": "bool"
        }
      ],
      "payable": false,
      "stateMutability": "view",
      "type": "function"
    }
  ],
  "bytecode": "0x6060604052341561000f57600080fd5b6106328061001e6000396000f30060606040526004361061006d576000357c0100000000000000000000000000000000000000000000000000000000900463ffffffff1680631625df9114610072578063618e6ce6146100c35780637a1a595614610102578063a7f4377914610171578063b10d6b4114610186575b600080fd5b341561007d57600080fd5b6100a9600480803573ffffffffffffffffffffffffffffffffffffffff16906020019091905050610200565b604051808215151515815260200191505060405180910390f35b34156100ce57600080fd5b6100e86004808035600019169060200190919050506102ee565b604051808215151515815260200191505060405180910390f35b341561010d57600080fd5b61015760048080356000191690602001909190803560001916906020019091908035600019169060200190919080356000191690602001909190803590602001909190505061031b565b604051808215151515815260200191505060405180910390f35b341561017c57600080fd5b61018461050c565b005b341561019157600080fd5b6101ab60048080356000191690602001909190505061059d565b6040518087600019166000191681526020018660001916600019168152602001856000191660001916815260200184815260200183815260200182151515158152602001965050505050505060405180910390f35b6000806000809054906101000a900473ffffffffffffffffffffffffffffffffffffffff1673ffffffffffffffffffffffffffffffffffffffff161415801561029657506000809054906101000a900473ffffffffffffffffffffffffffffffffffffffff1673ffffffffffffffffffffffffffffffffffffffff163373ffffffffffffffffffffffffffffffffffffffff1614155b156102a457600090506102e9565b816000806101000a81548173ffffffffffffffffffffffffffffffffffffffff021916908373ffffffffffffffffffffffffffffffffffffffff160217905550600190505b919050565b6000806102fa8361059d565b90919293945090919293509091925090915090508091505080915050919050565b6000806000806000809054906101000a900473ffffffffffffffffffffffffffffffffffffffff1673ffffffffffffffffffffffffffffffffffffffff16141515610500576000809054906101000a900473ffffffffffffffffffffffffffffffffffffffff1673ffffffffffffffffffffffffffffffffffffffff1663ec56a3736000604051602001526040518163ffffffff167c010000000000000000000000000000000000000000000000000000000002815260040180807f646f6361757468000000000000000000000000000000000000000000000000008152506020019050602060405180830381600087803b151561041857600080fd5b6102c65a03f1151561042957600080fd5b5050506040518051905091508173ffffffffffffffffffffffffffffffffffffffff163373ffffffffffffffffffffffffffffffffffffffff161480156104765750610474886102ee565b155b156104f757600160008960001916600019168152602001908152602001600020905086816000018160001916905550858160010181600019169055508481600201816000191690555083816003018190555042816004018190555060018160050160006101000a81548160ff02191690831515021790555060019250610501565b60009250610501565b5b505095945050505050565b6000809054906101000a900473ffffffffffffffffffffffffffffffffffffffff1673ffffffffffffffffffffffffffffffffffffffff163373ffffffffffffffffffffffffffffffffffffffff16141561059b576000809054906101000a900473ffffffffffffffffffffffffffffffffffffffff1673ffffffffffffffffffffffffffffffffffffffff16ff5b565b60008060008060008060006001600089600019166000191681526020019081526020016000209050806000015481600101548260020154836003015484600401548560050160009054906101000a900460ff1696509650965096509650965050919395509193955600a165627a7a7230582072857d1cc886fb003019d79404d4b63c61a546f0301371dbaaeb9b831b79e89c0029",
  "source": "pragma solidity ^0.4.17;\r\n\r\nimport './DocManagerEnabled.sol';\r\n\r\n// The Doc Auth database\r\ncontract DocAuthDB is DougEnabled {\r\n\r\n   //This is where we keep all the contracts\r\n    mapping(bytes32 => Document) private documentLibrary;\r\n\r\n    /// Function gets an entry from the document library. Returns the metadata of the document.\r\n    /// Will always return a Document object, even when the document doesn't exist.\r\n    /// Check the property \"isInitialized\" to confirm it's not an empty value.\r\n    function getDocument(bytes32 _hash) public view returns (bytes32,bytes32,bytes32,uint256,uint256, bool) {\r\n        //todo: teruggeven van struct is blijkbaar niet goed. Hervormen naar \"losse variabelen\".\r\n        //https://ethereum.stackexchange.com/questions/3609/returning-a-struct-and-reading-via-web3/3614#3614\r\n        Document storage _document = documentLibrary[_hash];\r\n        return (_document.author, _document.title, _document.email, _document.dateWritten, _document.dateRegistered, _document.isInitialized);\r\n    }\r\n\r\n    function register(bytes32 _hash, bytes32 _author,bytes32 _title,bytes32 _email,uint256 _dateWritten) public returns (bool) {\r\n        if (DOUG != 0x0) {\r\n            address docauth = ContractProvider(DOUG).contracts(\"docauth\");\r\n            if (msg.sender == docauth && !isDocumentRegistered(_hash) ) {\r\n                Document storage _document = documentLibrary[_hash];\r\n                _document.author = _author;\r\n                _document.title = _title;\r\n                _document.email = _email;\r\n                _document.dateWritten = _dateWritten;\r\n                _document.dateRegistered = block.timestamp;\r\n                _document.isInitialized = true;\r\n\r\n                return true;\r\n            }\r\n           else {\r\n               // Return if registration cannot be made\r\n               //msg.sender.send(msg.value);\r\n               return false; \r\n            }\r\n        }\r\n            \r\n    }\r\n\r\n    function isDocumentRegistered(bytes32 _hash) public view returns (bool) {\r\n        bool _storedIsInitialized;\r\n        (, , , , , _storedIsInitialized) = getDocument(_hash);\r\n        return _storedIsInitialized;\r\n    }\r\n\r\n    struct Document {\r\n        bytes32  author;\r\n        bytes32  title;\r\n        bytes32  email;\r\n        uint256  dateWritten;\r\n        uint256  dateRegistered;\r\n        bool  isInitialized;\r\n    }\r\n\r\n\r\n} ",
  "sourcePath": "c:\\Blockchain\\GitHub\\HowestBDAGroep1\\truffle\\contracts\\DocAuthDB.sol",
  "compiler": {
    "name": "solc",
    "version": "0.4.19+commit.c4cbbb05.Emscripten.clang"
  },
  "schemaVersion": "2.0.0",
  "updatedAt": "2018-04-09T15:56:30.431Z"
}