{
  "contractName": "DocAuth",
  "abi": [
    {
      "constant": true,
      "inputs": [
        {
          "name": "_hash",
          "type": "bytes32"
        }
      ],
      "name": "getDocument",
      "outputs": [
        {
          "name": "",
          "type": "bytes32"
        },
        {
          "name": "",
          "type": "bytes32"
        },
        {
          "name": "",
          "type": "bytes32"
        },
        {
          "name": "",
          "type": "uint256"
        },
        {
          "name": "",
          "type": "uint256"
        },
        {
          "name": "",
          "type": "bool"
        }
      ],
      "payable": false,
      "stateMutability": "view",
      "type": "function"
    },
    {
      "constant": false,
      "inputs": [
        {
          "name": "_hash",
          "type": "bytes32"
        },
        {
          "name": "_author",
          "type": "bytes32"
        },
        {
          "name": "_title",
          "type": "bytes32"
        },
        {
          "name": "_email",
          "type": "bytes32"
        },
        {
          "name": "_dateWritten",
          "type": "uint256"
        }
      ],
      "name": "register",
      "outputs": [
        {
          "name": "",
          "type": "bool"
        }
      ],
      "payable": false,
      "stateMutability": "nonpayable",
      "type": "function"
    },
    {
      "constant": true,
      "inputs": [
        {
          "name": "_hash",
          "type": "bytes32"
        }
      ],
      "name": "isDocumentRegistered",
      "outputs": [
        {
          "name": "",
          "type": "bool"
        }
      ],
      "payable": false,
      "stateMutability": "view",
      "type": "function"
    }
  ],
  "bytecode": "0x6060604052341561000f57600080fd5b6102e18061001e6000396000f300606060405260043610610057576000357c0100000000000000000000000000000000000000000000000000000000900463ffffffff168063618e6ce61461005c5780637a1a59561461009b578063b10d6b411461010a575b600080fd5b341561006757600080fd5b610081600480803560001916906020019091905050610184565b604051808215151515815260200191505060405180910390f35b34156100a657600080fd5b6100f06004808035600019169060200190919080356000191690602001909190803560001916906020019091908035600019169060200190919080359060200190919050506101b1565b604051808215151515815260200191505060405180910390f35b341561011557600080fd5b61012f60048080356000191690602001909190505061024d565b6040518087600019166000191681526020018660001916600019168152602001856000191660001916815260200184815260200183815260200182151515158152602001965050505050505060405180910390f35b6000806101908361024d565b90919293945090919293509091925090915090508091505080915050919050565b6000806101bd87610184565b151561023e576000808860001916600019168152602001908152602001600020905085816000018160001916905550848160010181600019169055508381600201816000191690555082816003018190555042816004018190555060018160050160006101000a81548160ff02191690831515021790555060019150610243565b600091505b5095945050505050565b600080600080600080600080600089600019166000191681526020019081526020016000209050806000015481600101548260020154836003015484600401548560050160009054906101000a900460ff1696509650965096509650965050919395509193955600a165627a7a723058209ddbe9cfa9fad691c57c2c0be215c7aa6006c639cfd458b64358028a8d9258820029",
  "source": "pragma solidity ^0.4.18;\r\n\r\ncontract DocAuth {\r\n   //This is where we keep all the contracts\r\n    mapping(bytes32 => Document) private documentLibrary;\r\n\r\n    /// Function gets an entry from the document library. Returns the metadata of the document.\r\n    /// Will always return a Document object, even when the document doesn't exist.\r\n    /// Check the property \"isInitialized\" to confirm it's not an empty value.\r\n    function getDocument(bytes32 _hash) public view returns (bytes32,bytes32,bytes32,uint256,uint256, bool) {\r\n        //todo: teruggeven van struct is blijkbaar niet goed. Hervormen naar \"losse variabelen\".\r\n        //https://ethereum.stackexchange.com/questions/3609/returning-a-struct-and-reading-via-web3/3614#3614\r\n        Document storage _document = documentLibrary[_hash];\r\n        return (_document.author, _document.title, _document.email, _document.dateWritten, _document.dateRegistered, _document.isInitialized);\r\n    }\r\n\r\n    function register(bytes32 _hash, bytes32 _author,bytes32 _title,bytes32 _email,uint256 _dateWritten) public returns (bool)\r\n    {\r\n       if(!isDocumentRegistered(_hash))\r\n       {\r\n           Document storage _document = documentLibrary[_hash];\r\n           _document.author = _author;\r\n           _document.title = _title;\r\n           _document.email = _email;\r\n           _document.dateWritten = _dateWritten;\r\n           _document.dateRegistered = block.timestamp;\r\n           _document.isInitialized = true;\r\n\r\n           return true;\r\n       }\r\n       else { return false; }\r\n    }\r\n\r\n    function isDocumentRegistered(bytes32 _hash) public view returns (bool) {\r\n        bool _storedIsInitialized;\r\n        (, , , , , _storedIsInitialized) = getDocument(_hash);\r\n        return _storedIsInitialized;\r\n    }\r\n\r\n    struct Document {\r\n        bytes32  author;\r\n        bytes32  title;\r\n        bytes32  email;\r\n        uint256  dateWritten;\r\n        uint256  dateRegistered;\r\n        bool  isInitialized;\r\n    }\r\n\r\n }\r\n",
  "sourcePath": "c:\\Blockchain\\GitHub\\HowestBDAGroep1\\truffle\\contracts\\DocAuth_noCMC.sol",
  "compiler": {
    "name": "solc",
    "version": "0.4.19+commit.c4cbbb05.Emscripten.clang"
  },
  "schemaVersion": "2.0.0",
  "updatedAt": "2018-04-09T15:56:30.475Z"
}