{
  "contractName": "DocAuth",
  "abi": [
    {
      "constant": false,
      "inputs": [
        {
          "name": "dougAddr",
          "type": "address"
        }
      ],
      "name": "setDOUGAddress",
      "outputs": [
        {
          "name": "result",
          "type": "bool"
        }
      ],
      "payable": false,
      "stateMutability": "nonpayable",
      "type": "function"
    },
    {
      "constant": false,
      "inputs": [],
      "name": "isDocManager",
      "outputs": [
        {
          "name": "",
          "type": "bool"
        }
      ],
      "payable": false,
      "stateMutability": "nonpayable",
      "type": "function"
    },
    {
      "constant": false,
      "inputs": [],
      "name": "remove",
      "outputs": [],
      "payable": false,
      "stateMutability": "nonpayable",
      "type": "function"
    },
    {
      "constant": false,
      "inputs": [
        {
          "name": "_hash",
          "type": "bytes32"
        },
        {
          "name": "_author",
          "type": "bytes32"
        },
        {
          "name": "_title",
          "type": "bytes32"
        },
        {
          "name": "_email",
          "type": "bytes32"
        },
        {
          "name": "_dateWritten",
          "type": "uint256"
        }
      ],
      "name": "register",
      "outputs": [
        {
          "name": "res",
          "type": "bool"
        }
      ],
      "payable": false,
      "stateMutability": "nonpayable",
      "type": "function"
    },
    {
      "constant": true,
      "inputs": [
        {
          "name": "_hash",
          "type": "bytes32"
        }
      ],
      "name": "getDocument",
      "outputs": [
        {
          "name": "",
          "type": "bytes32"
        },
        {
          "name": "",
          "type": "bytes32"
        },
        {
          "name": "",
          "type": "bytes32"
        },
        {
          "name": "",
          "type": "uint256"
        },
        {
          "name": "",
          "type": "uint256"
        },
        {
          "name": "",
          "type": "bool"
        }
      ],
      "payable": false,
      "stateMutability": "view",
      "type": "function"
    }
  ],
  "bytecode": "0x6060604052341561000f57600080fd5b6108c88061001e6000396000f30060606040526004361061006d576000357c0100000000000000000000000000000000000000000000000000000000900463ffffffff1680631625df91146100725780636fb35b43146100c35780637a1a5956146100f0578063a7f437791461015f578063b10d6b4114610174575b600080fd5b341561007d57600080fd5b6100a9600480803573ffffffffffffffffffffffffffffffffffffffff169060200190919050506101ee565b604051808215151515815260200191505060405180910390f35b34156100ce57600080fd5b6100d66102dc565b604051808215151515815260200191505060405180910390f35b34156100fb57600080fd5b610145600480803560001916906020019091908035600019169060200190919080356000191690602001909190803560001916906020019091908035906020019091905050610434565b604051808215151515815260200191505060405180910390f35b341561016a57600080fd5b610172610630565b005b341561017f57600080fd5b6101996004808035600019169060200190919050506106c1565b6040518087600019166000191681526020018660001916600019168152602001856000191660001916815260200184815260200183815260200182151515158152602001965050505050505060405180910390f35b6000806000809054906101000a900473ffffffffffffffffffffffffffffffffffffffff1673ffffffffffffffffffffffffffffffffffffffff161415801561028457506000809054906101000a900473ffffffffffffffffffffffffffffffffffffffff1673ffffffffffffffffffffffffffffffffffffffff163373ffffffffffffffffffffffffffffffffffffffff1614155b1561029257600090506102d7565b816000806101000a81548173ffffffffffffffffffffffffffffffffffffffff021916908373ffffffffffffffffffffffffffffffffffffffff160217905550600190505b919050565b60008060008060009054906101000a900473ffffffffffffffffffffffffffffffffffffffff1673ffffffffffffffffffffffffffffffffffffffff1614151561042b576000809054906101000a900473ffffffffffffffffffffffffffffffffffffffff1673ffffffffffffffffffffffffffffffffffffffff1663ec56a3736000604051602001526040518163ffffffff167c010000000000000000000000000000000000000000000000000000000002815260040180807f646f636d616e61676572000000000000000000000000000000000000000000008152506020019050602060405180830381600087803b15156103d857600080fd5b6102c65a03f115156103e957600080fd5b5050506040518051905090508073ffffffffffffffffffffffffffffffffffffffff163373ffffffffffffffffffffffffffffffffffffffff16149150610430565b600091505b5090565b60008060006104416102dc565b15156104505760009250610625565b6000809054906101000a900473ffffffffffffffffffffffffffffffffffffffff1673ffffffffffffffffffffffffffffffffffffffff1663ec56a3736000604051602001526040518163ffffffff167c010000000000000000000000000000000000000000000000000000000002815260040180807f646f6361757468646200000000000000000000000000000000000000000000008152506020019050602060405180830381600087803b151561050857600080fd5b6102c65a03f1151561051957600080fd5b50505060405180519050915060008273ffffffffffffffffffffffffffffffffffffffff16141561054d5760009250610625565b8173ffffffffffffffffffffffffffffffffffffffff16637a1a595689898989896000604051602001526040518663ffffffff167c010000000000000000000000000000000000000000000000000000000002815260040180866000191660001916815260200185600019166000191681526020018460001916600019168152602001836000191660001916815260200182815260200195505050505050602060405180830381600087803b151561060457600080fd5b6102c65a03f1151561061557600080fd5b5050506040518051905090508092505b505095945050505050565b6000809054906101000a900473ffffffffffffffffffffffffffffffffffffffff1673ffffffffffffffffffffffffffffffffffffffff163373ffffffffffffffffffffffffffffffffffffffff1614156106bf576000809054906101000a900473ffffffffffffffffffffffffffffffffffffffff1673ffffffffffffffffffffffffffffffffffffffff16ff5b565b60008060008060008060008060008060008060008060009054906101000a900473ffffffffffffffffffffffffffffffffffffffff1673ffffffffffffffffffffffffffffffffffffffff1663ec56a3736000604051602001526040518163ffffffff167c010000000000000000000000000000000000000000000000000000000002815260040180807f646f6361757468646200000000000000000000000000000000000000000000008152506020019050602060405180830381600087803b151561078d57600080fd5b6102c65a03f1151561079e57600080fd5b5050506040518051905096508673ffffffffffffffffffffffffffffffffffffffff1663b10d6b418f600060405160c001526040518263ffffffff167c010000000000000000000000000000000000000000000000000000000002815260040180826000191660001916815260200191505060c060405180830381600087803b151561082957600080fd5b6102c65a03f1151561083a57600080fd5b50505060405180519060200180519060200180519060200180519060200180519060200180519050809650819750829850839950849a50859b505050505050508585858585859c509c509c509c509c509c5050505050505050919395509193955600a165627a7a723058204d5c7f3126636c8b04160da4b4fad5c0750479d2dddfb4442c4d8a59190da8c60029",
  "source": "pragma solidity ^0.4.18;\r\n\r\nimport './DocManagerEnabled.sol';\r\nimport './DocAuthDB.sol';\r\n\r\n// Doc Auth\r\ncontract DocAuth is DocManagerEnabled {\r\n\r\n    // Attempt to register the document\r\n    function register(bytes32 _hash, bytes32 _author,bytes32 _title,bytes32 _email,uint256 _dateWritten) public returns (bool res) {\r\n        if (!isDocManager()) {\r\n            return false;\r\n        }\r\n\r\n        address docauthdb = ContractProvider(DOUG).contracts(\"docauthdb\");\r\n        if (docauthdb == 0x0) {\r\n            // document can not be registered\r\n            // Note - if registration costs money we should return it msg.sender.send(msg.value);\r\n            return false;\r\n        }\r\n\r\n        // Use the interface to call on the docauthdb contract. We pass allong all the parameters as well\r\n        bool success = DocAuthDB(docauthdb).register(_hash, _author, _title, _email, _dateWritten);\r\n\r\n        // if the transation failed, return the ether to the caller.\r\n        // note : we rekenen voor de moment geen kost aan -> dus dit stukje is misschien wat overbodig ?\r\n        if (!success) {\r\n            //msg.sender.send(msg.value);\r\n        }\r\n        return success;\r\n    }\r\n     function getDocument(bytes32 _hash) public view returns (bytes32,bytes32,bytes32,uint256,uint256, bool) {\r\n            address docauthdb = ContractProvider(DOUG).contracts(\"docauthdb\");\r\n            bytes32 docAuthor;\r\n            bytes32 docTitle; \r\n            bytes32 docEmail; \r\n            uint256 docdateWritten; \r\n            uint256 docdateRegistered; \r\n            bool docisInitialized;\r\n\r\n\r\n            (docAuthor, docTitle, docEmail, docdateWritten, docdateRegistered, docisInitialized) = DocAuthDB(docauthdb).getDocument(_hash);\r\n\r\n\r\n         return (docAuthor, docTitle, docEmail, docdateWritten, docdateRegistered, docisInitialized);\r\n     }\r\n\r\n}",
  "sourcePath": "c:\\Blockchain\\GitHub\\HowestBDAGroep1\\truffle\\contracts\\DocAuth.sol",
  "compiler": {
    "name": "solc",
    "version": "0.4.19+commit.c4cbbb05.Emscripten.clang"
  },
  "schemaVersion": "2.0.0",
  "updatedAt": "2018-04-13T17:51:40.140Z"
}