{
  "contractName": "DocAuth",
  "abi": [
    {
      "constant": false,
      "inputs": [
        {
          "name": "dougAddr",
          "type": "address"
        }
      ],
      "name": "setDOUGAddress",
      "outputs": [
        {
          "name": "result",
          "type": "bool"
        }
      ],
      "payable": false,
      "stateMutability": "nonpayable",
      "type": "function"
    },
    {
      "constant": false,
      "inputs": [],
      "name": "isDocManager",
      "outputs": [
        {
          "name": "",
          "type": "bool"
        }
      ],
      "payable": false,
      "stateMutability": "nonpayable",
      "type": "function"
    },
    {
      "constant": false,
      "inputs": [],
      "name": "remove",
      "outputs": [],
      "payable": false,
      "stateMutability": "nonpayable",
      "type": "function"
    },
    {
      "constant": false,
      "inputs": [
        {
          "name": "_hash",
          "type": "bytes32"
        },
        {
          "name": "_author",
          "type": "bytes32"
        },
        {
          "name": "_title",
          "type": "bytes32"
        },
        {
          "name": "_email",
          "type": "bytes32"
        },
        {
          "name": "_dateWritten",
          "type": "uint256"
        }
      ],
      "name": "register",
      "outputs": [
        {
          "name": "res",
          "type": "bool"
        }
      ],
      "payable": false,
      "stateMutability": "nonpayable",
      "type": "function"
    },
    {
      "constant": true,
      "inputs": [
        {
          "name": "_hash",
          "type": "bytes32"
        }
      ],
      "name": "getDocument",
      "outputs": [
        {
          "name": "",
          "type": "bytes32"
        },
        {
          "name": "",
          "type": "bytes32"
        },
        {
          "name": "",
          "type": "bytes32"
        },
        {
          "name": "",
          "type": "uint256"
        },
        {
          "name": "",
          "type": "uint256"
        },
        {
          "name": "",
          "type": "bool"
        }
      ],
      "payable": false,
      "stateMutability": "view",
      "type": "function"
    },
    {
      "constant": true,
      "inputs": [
        {
          "name": "_author",
          "type": "bytes32"
        }
      ],
      "name": "getDocumentByAuthorName",
      "outputs": [
        {
          "name": "",
          "type": "bytes32[10]"
        }
      ],
      "payable": false,
      "stateMutability": "view",
      "type": "function"
    }
  ],
  "bytecode": "0x6060604052341561000f57600080fd5b610a8d8061001e6000396000f300606060405260043610610078576000357c0100000000000000000000000000000000000000000000000000000000900463ffffffff1680631625df911461007d5780636fb35b43146100ce5780637a1a5956146100fb5780637b0e88961461016a578063a7f43779146101cd578063b10d6b41146101e2575b600080fd5b341561008857600080fd5b6100b4600480803573ffffffffffffffffffffffffffffffffffffffff1690602001909190505061025c565b604051808215151515815260200191505060405180910390f35b34156100d957600080fd5b6100e161034a565b604051808215151515815260200191505060405180910390f35b341561010657600080fd5b610150600480803560001916906020019091908035600019169060200190919080356000191690602001909190803560001916906020019091908035906020019091905050610495565b604051808215151515815260200191505060405180910390f35b341561017557600080fd5b61018f600480803560001916906020019091905050610677565b6040518082600a60200280838360005b838110156101ba57808201518184015260208101905061019f565b5050505090500191505060405180910390f35b34156101d857600080fd5b6101e06107e3565b005b34156101ed57600080fd5b610207600480803560001916906020019091905050610874565b6040518087600019166000191681526020018660001916600019168152602001856000191660001916815260200184815260200183815260200182151515158152602001965050505050505060405180910390f35b6000806000809054906101000a900473ffffffffffffffffffffffffffffffffffffffff1673ffffffffffffffffffffffffffffffffffffffff16141580156102f257506000809054906101000a900473ffffffffffffffffffffffffffffffffffffffff1673ffffffffffffffffffffffffffffffffffffffff163373ffffffffffffffffffffffffffffffffffffffff1614155b156103005760009050610345565b816000806101000a81548173ffffffffffffffffffffffffffffffffffffffff021916908373ffffffffffffffffffffffffffffffffffffffff160217905550600190505b919050565b60008060008060009054906101000a900473ffffffffffffffffffffffffffffffffffffffff1673ffffffffffffffffffffffffffffffffffffffff1614151561048c576000809054906101000a900473ffffffffffffffffffffffffffffffffffffffff1673ffffffffffffffffffffffffffffffffffffffff1663ec56a3736040518163ffffffff167c010000000000000000000000000000000000000000000000000000000002815260040180807f646f636d616e61676572000000000000000000000000000000000000000000008152506020019050602060405180830381600087803b151561043d57600080fd5b5af1151561044a57600080fd5b5050506040518051905090508073ffffffffffffffffffffffffffffffffffffffff163373ffffffffffffffffffffffffffffffffffffffff16149150610491565b600091505b5090565b60008060006104a261034a565b15156104b1576000925061066c565b6000809054906101000a900473ffffffffffffffffffffffffffffffffffffffff1673ffffffffffffffffffffffffffffffffffffffff1663ec56a3736040518163ffffffff167c010000000000000000000000000000000000000000000000000000000002815260040180807f646f6361757468646200000000000000000000000000000000000000000000008152506020019050602060405180830381600087803b151561056057600080fd5b5af1151561056d57600080fd5b50505060405180519050915060008273ffffffffffffffffffffffffffffffffffffffff1614156105a1576000925061066c565b8173ffffffffffffffffffffffffffffffffffffffff16637a1a595689898989896040518663ffffffff167c010000000000000000000000000000000000000000000000000000000002815260040180866000191660001916815260200185600019166000191681526020018460001916600019168152602001836000191660001916815260200182815260200195505050505050602060405180830381600087803b151561064f57600080fd5b5af1151561065c57600080fd5b5050506040518051905090508092505b505095945050505050565b61067f610a35565b60008060009054906101000a900473ffffffffffffffffffffffffffffffffffffffff1673ffffffffffffffffffffffffffffffffffffffff1663ec56a3736040518163ffffffff167c010000000000000000000000000000000000000000000000000000000002815260040180807f646f6361757468646200000000000000000000000000000000000000000000008152506020019050602060405180830381600087803b151561073057600080fd5b5af1151561073d57600080fd5b5050506040518051905090508073ffffffffffffffffffffffffffffffffffffffff16637b0e8896846040518263ffffffff167c010000000000000000000000000000000000000000000000000000000002815260040180826000191660001916815260200191505061014060405180830381600087803b15156107c057600080fd5b5af115156107cd57600080fd5b5050506040518061014001604052915050919050565b6000809054906101000a900473ffffffffffffffffffffffffffffffffffffffff1673ffffffffffffffffffffffffffffffffffffffff163373ffffffffffffffffffffffffffffffffffffffff161415610872576000809054906101000a900473ffffffffffffffffffffffffffffffffffffffff1673ffffffffffffffffffffffffffffffffffffffff16ff5b565b60008060008060008060008060008060008060008060009054906101000a900473ffffffffffffffffffffffffffffffffffffffff1673ffffffffffffffffffffffffffffffffffffffff1663ec56a3736040518163ffffffff167c010000000000000000000000000000000000000000000000000000000002815260040180807f646f6361757468646200000000000000000000000000000000000000000000008152506020019050602060405180830381600087803b151561093757600080fd5b5af1151561094457600080fd5b5050506040518051905096508673ffffffffffffffffffffffffffffffffffffffff1663b10d6b418f6040518263ffffffff167c010000000000000000000000000000000000000000000000000000000002815260040180826000191660001916815260200191505060c060405180830381600087803b15156109c657600080fd5b5af115156109d357600080fd5b50505060405180519060200180519060200180519060200180519060200180519060200180519050809650819750829850839950849a50859b505050505050508585858585859c509c509c509c509c509c505050505050505091939550919395565b61014060405190810160405280600a905b6000801916815260200190600190039081610a4657905050905600a165627a7a72305820ffd417e7a4668769441a6a269285e576c5ea8ebf96f9131d79318c61829fe2c70029",
  "source": "pragma solidity ^0.4.18;\r\n\r\nimport './DocManagerEnabled.sol';\r\nimport './DocAuthDB.sol';\r\n\r\n// Doc Auth\r\ncontract DocAuth is DocManagerEnabled {\r\n\r\n    // Attempt to register the document\r\n    function register(bytes32 _hash, bytes32 _author,bytes32 _title,bytes32 _email,uint256 _dateWritten) public returns (bool res) {\r\n        if (!isDocManager()) {\r\n            return false;\r\n        }\r\n\r\n        address docauthdb = ContractProvider(DOUG).contracts(\"docauthdb\");\r\n        if (docauthdb == 0x0) {\r\n            // document can not be registered\r\n            // Note - if registration costs money we should return it msg.sender.send(msg.value);\r\n            return false;\r\n        }\r\n\r\n        // Use the interface to call on the docauthdb contract. We pass allong all the parameters as well\r\n        bool success = DocAuthDB(docauthdb).register(_hash, _author, _title, _email, _dateWritten);\r\n\r\n        // if the transation failed, return the ether to the caller.\r\n        // note : we rekenen voor de moment geen kost aan -> dus dit stukje is misschien wat overbodig ?\r\n        if (!success) {\r\n            //msg.sender.send(msg.value);\r\n        }\r\n        return success;\r\n    }\r\n     function getDocument(bytes32 _hash) public view returns (bytes32,bytes32,bytes32,uint256,uint256, bool) {\r\n            address docauthdb = ContractProvider(DOUG).contracts(\"docauthdb\");\r\n            bytes32 docAuthor;\r\n            bytes32 docTitle;\r\n            bytes32 docEmail;\r\n            uint256 docdateWritten;\r\n            uint256 docdateRegistered;\r\n            bool docisInitialized;\r\n\r\n\r\n            (docAuthor, docTitle, docEmail, docdateWritten, docdateRegistered, docisInitialized) = DocAuthDB(docauthdb).getDocument(_hash);\r\n\r\n\r\n         return (docAuthor, docTitle, docEmail, docdateWritten, docdateRegistered, docisInitialized);\r\n     }\r\n\r\n\t function getDocumentByAuthorName(bytes32 _author) public view returns (bytes32[10]) {\r\n\t\t address docauthdb = ContractProvider(DOUG).contracts(\"docauthdb\");\r\n\r\n\t\t return DocAuth(docauthdb).getDocumentByAuthorName(_author);\r\n\t}\r\n\r\n}\r\n",
  "sourcePath": "C:\\BDA\\T1\\HowestBDAGroep1-master\\truffle\\contracts\\DocAuth.sol",
  "compiler": {
    "name": "solc",
    "version": "0.4.21+commit.dfe3193c.Emscripten.clang"
  },
  "schemaVersion": "2.0.0",
  "updatedAt": "2018-04-14T18:38:06.435Z"
}