{
  "contractName": "DocManagerEnabled",
  "abi": [
    {
      "constant": false,
      "inputs": [
        {
          "name": "dougAddr",
          "type": "address"
        }
      ],
      "name": "setDOUGAddress",
      "outputs": [
        {
          "name": "result",
          "type": "bool"
        }
      ],
      "payable": false,
      "stateMutability": "nonpayable",
      "type": "function"
    },
    {
      "constant": false,
      "inputs": [],
      "name": "remove",
      "outputs": [],
      "payable": false,
      "stateMutability": "nonpayable",
      "type": "function"
    },
    {
      "constant": false,
      "inputs": [],
      "name": "isDocManager",
      "outputs": [
        {
          "name": "",
          "type": "bool"
        }
      ],
      "payable": false,
      "stateMutability": "nonpayable",
      "type": "function"
    }
  ],
  "bytecode": "0x6060604052341561000f57600080fd5b6103e58061001e6000396000f300606060405260043610610057576000357c0100000000000000000000000000000000000000000000000000000000900463ffffffff1680631625df911461005c5780636fb35b43146100ad578063a7f43779146100da575b600080fd5b341561006757600080fd5b610093600480803573ffffffffffffffffffffffffffffffffffffffff169060200190919050506100ef565b604051808215151515815260200191505060405180910390f35b34156100b857600080fd5b6100c06101dd565b604051808215151515815260200191505060405180910390f35b34156100e557600080fd5b6100ed610328565b005b6000806000809054906101000a900473ffffffffffffffffffffffffffffffffffffffff1673ffffffffffffffffffffffffffffffffffffffff161415801561018557506000809054906101000a900473ffffffffffffffffffffffffffffffffffffffff1673ffffffffffffffffffffffffffffffffffffffff163373ffffffffffffffffffffffffffffffffffffffff1614155b1561019357600090506101d8565b816000806101000a81548173ffffffffffffffffffffffffffffffffffffffff021916908373ffffffffffffffffffffffffffffffffffffffff160217905550600190505b919050565b60008060008060009054906101000a900473ffffffffffffffffffffffffffffffffffffffff1673ffffffffffffffffffffffffffffffffffffffff1614151561031f576000809054906101000a900473ffffffffffffffffffffffffffffffffffffffff1673ffffffffffffffffffffffffffffffffffffffff1663ec56a3736040518163ffffffff167c010000000000000000000000000000000000000000000000000000000002815260040180807f646f636d616e61676572000000000000000000000000000000000000000000008152506020019050602060405180830381600087803b15156102d057600080fd5b5af115156102dd57600080fd5b5050506040518051905090508073ffffffffffffffffffffffffffffffffffffffff163373ffffffffffffffffffffffffffffffffffffffff16149150610324565b600091505b5090565b6000809054906101000a900473ffffffffffffffffffffffffffffffffffffffff1673ffffffffffffffffffffffffffffffffffffffff163373ffffffffffffffffffffffffffffffffffffffff1614156103b7576000809054906101000a900473ffffffffffffffffffffffffffffffffffffffff1673ffffffffffffffffffffffffffffffffffffffff16ff5b5600a165627a7a72305820d8f6aff60d41f2980cb204607f145d3bd134fa7fef37878a86abbe2e9648c9840029",
  "source": "pragma solidity ^0.4.17;\r\n\r\nimport './DougEnabled.sol';\r\n\r\n\r\n// Base class for contracts that only allow the docmanager to call them.\r\n// Note that it inherits from DougEnabled\r\ncontract DocManagerEnabled is DougEnabled {\r\n\r\n    //makes it easier to check that fundmanager is the caller.\r\n    function isDocManager() public returns (bool) {\r\n        if(DOUG != 0x0) {\r\n            address dm = ContractProvider(DOUG).contracts(\"docmanager\");\r\n            return msg.sender == dm;\r\n        }\r\n        return false;\r\n    }\r\n}\r\n",
  "sourcePath": "C:\\BDA\\T1\\HowestBDAGroep1-master\\truffle\\contracts\\DocManagerEnabled.sol",
  "compiler": {
    "name": "solc",
    "version": "0.4.21+commit.dfe3193c.Emscripten.clang"
  },
  "schemaVersion": "2.0.0",
  "updatedAt": "2018-04-15T19:22:19.407Z"
}