{
  "contractName": "DocManager",
  "abi": [
    {
      "constant": false,
      "inputs": [
        {
          "name": "dougAddr",
          "type": "address"
        }
      ],
      "name": "setDOUGAddress",
      "outputs": [
        {
          "name": "result",
          "type": "bool"
        }
      ],
      "payable": false,
      "stateMutability": "nonpayable",
      "type": "function"
    },
    {
      "constant": false,
      "inputs": [],
      "name": "remove",
      "outputs": [],
      "payable": false,
      "stateMutability": "nonpayable",
      "type": "function"
    },
    {
      "inputs": [],
      "payable": false,
      "stateMutability": "nonpayable",
      "type": "constructor"
    },
    {
      "constant": false,
      "inputs": [
        {
          "name": "_hash",
          "type": "bytes32"
        },
        {
          "name": "_author",
          "type": "bytes32"
        },
        {
          "name": "_title",
          "type": "bytes32"
        },
        {
          "name": "_email",
          "type": "bytes32"
        },
        {
          "name": "_dateWritten",
          "type": "uint256"
        }
      ],
      "name": "register",
      "outputs": [
        {
          "name": "",
          "type": "bool"
        }
      ],
      "payable": false,
      "stateMutability": "nonpayable",
      "type": "function"
    }
  ],
  "bytecode": "0x6060604052341561000f57600080fd5b33600160006101000a81548173ffffffffffffffffffffffffffffffffffffffff021916908373ffffffffffffffffffffffffffffffffffffffff16021790555061051a8061005f6000396000f300606060405260043610610057576000357c0100000000000000000000000000000000000000000000000000000000900463ffffffff1680631625df911461005c5780637a1a5956146100ad578063a7f437791461011c575b600080fd5b341561006757600080fd5b610093600480803573ffffffffffffffffffffffffffffffffffffffff16906020019091905050610131565b604051808215151515815260200191505060405180910390f35b34156100b857600080fd5b61010260048080356000191690602001909190803560001916906020019091908035600019169060200190919080356000191690602001909190803590602001909190505061021f565b604051808215151515815260200191505060405180910390f35b341561012757600080fd5b61012f61045d565b005b6000806000809054906101000a900473ffffffffffffffffffffffffffffffffffffffff1673ffffffffffffffffffffffffffffffffffffffff16141580156101c757506000809054906101000a900473ffffffffffffffffffffffffffffffffffffffff1673ffffffffffffffffffffffffffffffffffffffff163373ffffffffffffffffffffffffffffffffffffffff1614155b156101d5576000905061021a565b816000806101000a81548173ffffffffffffffffffffffffffffffffffffffff021916908373ffffffffffffffffffffffffffffffffffffffff160217905550600190505b919050565b60008060008060010288600019161480610240575060006001028760001916145b80610252575060006001028660001916145b80610264575060006001028560001916145b8061026f5750600084145b1561027d5760009250610452565b6000809054906101000a900473ffffffffffffffffffffffffffffffffffffffff1673ffffffffffffffffffffffffffffffffffffffff1663ec56a3736000604051602001526040518163ffffffff167c010000000000000000000000000000000000000000000000000000000002815260040180807f646f6361757468000000000000000000000000000000000000000000000000008152506020019050602060405180830381600087803b151561033557600080fd5b6102c65a03f1151561034657600080fd5b50505060405180519050915060008273ffffffffffffffffffffffffffffffffffffffff16141561037a5760009250610452565b8173ffffffffffffffffffffffffffffffffffffffff16637a1a595689898989896000604051602001526040518663ffffffff167c010000000000000000000000000000000000000000000000000000000002815260040180866000191660001916815260200185600019166000191681526020018460001916600019168152602001836000191660001916815260200182815260200195505050505050602060405180830381600087803b151561043157600080fd5b6102c65a03f1151561044257600080fd5b5050506040518051905090508092505b505095945050505050565b6000809054906101000a900473ffffffffffffffffffffffffffffffffffffffff1673ffffffffffffffffffffffffffffffffffffffff163373ffffffffffffffffffffffffffffffffffffffff1614156104ec576000809054906101000a900473ffffffffffffffffffffffffffffffffffffffff1673ffffffffffffffffffffffffffffffffffffffff16ff5b5600a165627a7a72305820c5101b61fdcd24af85e7bcf7e6386d01384219db0f0e774357b1427f37efefb40029",
  "source": "pragma solidity ^0.4.17;\r\n\r\nimport './DougEnabled.sol';\r\nimport './DocAuth.sol';\r\n\r\n// The Doc Manager\r\n\r\ncontract DocManager is DougEnabled {\r\n\r\n    // We still want a owner\r\n    address owner;\r\n\r\n    //Constructor\r\n    function DocManager() {\r\n        owner  = msg.sender;\r\n    }\r\n\r\n    // Attempt to register the document\r\n    function register(bytes32 _hash, bytes32 _author,bytes32 _title,bytes32 _email,uint256 _dateWritten) public returns (bool) {\r\n        if (_hash == 0x0 || _author == 0x0 || _title == 0x0 || _email == 0x0 || _dateWritten == 0) {\r\n            return false;\r\n        }\r\n\r\n        address docauth = ContractProvider(DOUG).contracts(\"docauth\");\r\n        //address permsdb = ContractProvider(DOUG).contracts(\"permsdb\");\r\n\r\n       // if (docauth == 0x0 || permsdb == 0x0 || PermissionsDB(permsdb).perms(msg.sender) < 1 ) {\r\n           if (docauth == 0X0 ) {\r\n            // if the user send money, we should return it if we can't register\r\n            //msg.sender.send(msg.value);\r\n            return false;\r\n        }\r\n\r\n        // Use the interface to call on the bank contract. We pass the parameters along as well.\r\n\r\n        bool success = DocAuth(docauth).register(_hash, _author, _title, _email, _dateWritten);\r\n\r\n        // if the transaction failed, return the Ether to the caller\r\n        if (!success) {\r\n           // msg.sender.send(msg.value);\r\n        }\r\n        return success;\r\n\r\n    }\r\n}",
  "sourcePath": "c:\\Blockchain\\GitHub\\HowestBDAGroep1\\truffle\\contracts\\DocManager.sol",
  "compiler": {
    "name": "solc",
    "version": "0.4.19+commit.c4cbbb05.Emscripten.clang"
  },
  "schemaVersion": "2.0.0",
  "updatedAt": "2018-04-12T17:33:42.528Z"
}