{
  "contractName": "DocManager",
  "abi": [
    {
      "constant": false,
      "inputs": [
        {
          "name": "dougAddr",
          "type": "address"
        }
      ],
      "name": "setDOUGAddress",
      "outputs": [
        {
          "name": "result",
          "type": "bool"
        }
      ],
      "payable": false,
      "stateMutability": "nonpayable",
      "type": "function"
    },
    {
      "constant": false,
      "inputs": [],
      "name": "remove",
      "outputs": [],
      "payable": false,
      "stateMutability": "nonpayable",
      "type": "function"
    },
    {
      "inputs": [],
      "payable": false,
      "stateMutability": "nonpayable",
      "type": "constructor"
    },
    {
      "constant": false,
      "inputs": [
        {
          "name": "_hash",
          "type": "bytes32"
        },
        {
          "name": "_author",
          "type": "bytes32"
        },
        {
          "name": "_title",
          "type": "bytes32"
        },
        {
          "name": "_email",
          "type": "bytes32"
        },
        {
          "name": "_dateWritten",
          "type": "uint256"
        }
      ],
      "name": "register",
      "outputs": [
        {
          "name": "",
          "type": "bool"
        }
      ],
      "payable": false,
      "stateMutability": "nonpayable",
      "type": "function"
    },
    {
      "constant": true,
      "inputs": [
        {
          "name": "_hash",
          "type": "bytes32"
        }
      ],
      "name": "getDocument",
      "outputs": [
        {
          "name": "",
          "type": "bytes32"
        },
        {
          "name": "",
          "type": "bytes32"
        },
        {
          "name": "",
          "type": "bytes32"
        },
        {
          "name": "",
          "type": "uint256"
        },
        {
          "name": "",
          "type": "uint256"
        },
        {
          "name": "",
          "type": "bool"
        }
      ],
      "payable": false,
      "stateMutability": "view",
      "type": "function"
    },
    {
      "constant": true,
      "inputs": [
        {
          "name": "_author",
          "type": "bytes32"
        }
      ],
      "name": "getDocumentByAuthorName",
      "outputs": [
        {
          "name": "",
          "type": "bytes32[5]"
        },
        {
          "name": "",
          "type": "uint256[5]"
        },
        {
          "name": "",
          "type": "uint256[5]"
        },
        {
          "name": "",
          "type": "bool[5]"
        },
        {
          "name": "",
          "type": "bytes32"
        },
        {
          "name": "",
          "type": "bytes32"
        }
      ],
      "payable": false,
      "stateMutability": "view",
      "type": "function"
    }
  ],
  "bytecode": "0x6060604052341561000f57600080fd5b33600160006101000a81548173ffffffffffffffffffffffffffffffffffffffff021916908373ffffffffffffffffffffffffffffffffffffffff160217905550610a888061005f6000396000f30060606040526004361061006d576000357c0100000000000000000000000000000000000000000000000000000000900463ffffffff1680631625df91146100725780637a1a5956146100c35780637b0e889614610132578063a7f4377914610240578063b10d6b4114610255575b600080fd5b341561007d57600080fd5b6100a9600480803573ffffffffffffffffffffffffffffffffffffffff169060200190919050506102cf565b604051808215151515815260200191505060405180910390f35b34156100ce57600080fd5b6101186004808035600019169060200190919080356000191690602001909190803560001916906020019091908035600019169060200190919080359060200190919050506103bd565b604051808215151515815260200191505060405180910390f35b341561013d57600080fd5b6101576004808035600019169060200190919050506105e1565b6040518087600560200280838360005b83811015610182578082015181840152602081019050610167565b5050505090500186600560200280838360005b838110156101b0578082015181840152602081019050610195565b5050505090500185600560200280838360005b838110156101de5780820151818401526020810190506101c3565b5050505090500184600560200280838360005b8381101561020c5780820151818401526020810190506101f1565b5050505090500183600019166000191681526020018260001916600019168152602001965050505050505060405180910390f35b341561024b57600080fd5b61025361078d565b005b341561026057600080fd5b61027a60048080356000191690602001909190505061081e565b6040518087600019166000191681526020018660001916600019168152602001856000191660001916815260200184815260200183815260200182151515158152602001965050505050505060405180910390f35b6000806000809054906101000a900473ffffffffffffffffffffffffffffffffffffffff1673ffffffffffffffffffffffffffffffffffffffff161415801561036557506000809054906101000a900473ffffffffffffffffffffffffffffffffffffffff1673ffffffffffffffffffffffffffffffffffffffff163373ffffffffffffffffffffffffffffffffffffffff1614155b1561037357600090506103b8565b816000806101000a81548173ffffffffffffffffffffffffffffffffffffffff021916908373ffffffffffffffffffffffffffffffffffffffff160217905550600190505b919050565b600080600080600102886000191614806103de575060006001028760001916145b806103f0575060006001028660001916145b80610402575060006001028560001916145b8061040d5750600084145b1561041b57600092506105d6565b6000809054906101000a900473ffffffffffffffffffffffffffffffffffffffff1673ffffffffffffffffffffffffffffffffffffffff1663ec56a3736040518163ffffffff167c010000000000000000000000000000000000000000000000000000000002815260040180807f646f6361757468000000000000000000000000000000000000000000000000008152506020019050602060405180830381600087803b15156104ca57600080fd5b5af115156104d757600080fd5b50505060405180519050915060008273ffffffffffffffffffffffffffffffffffffffff16141561050b57600092506105d6565b8173ffffffffffffffffffffffffffffffffffffffff16637a1a595689898989896040518663ffffffff167c010000000000000000000000000000000000000000000000000000000002815260040180866000191660001916815260200185600019166000191681526020018460001916600019168152602001836000191660001916815260200182815260200195505050505050602060405180830381600087803b15156105b957600080fd5b5af115156105c657600080fd5b5050506040518051905090508092505b505095945050505050565b6105e96109df565b6105f1610a0a565b6105f9610a0a565b610601610a32565b60008060008060009054906101000a900473ffffffffffffffffffffffffffffffffffffffff1673ffffffffffffffffffffffffffffffffffffffff1663ec56a3736040518163ffffffff167c010000000000000000000000000000000000000000000000000000000002815260040180807f646f6361757468000000000000000000000000000000000000000000000000008152506020019050602060405180830381600087803b15156106b557600080fd5b5af115156106c257600080fd5b5050506040518051905090508073ffffffffffffffffffffffffffffffffffffffff16637b0e8896896040518263ffffffff167c01000000000000000000000000000000000000000000000000000000000281526004018082600019166000191681526020019150506102c060405180830381600087803b151561074557600080fd5b5af1151561075257600080fd5b5050506040518060a0018060a0018060a0018060a0018051906020018051906020016040529650965096509650965096505091939550919395565b6000809054906101000a900473ffffffffffffffffffffffffffffffffffffffff1673ffffffffffffffffffffffffffffffffffffffff163373ffffffffffffffffffffffffffffffffffffffff16141561081c576000809054906101000a900473ffffffffffffffffffffffffffffffffffffffff1673ffffffffffffffffffffffffffffffffffffffff16ff5b565b60008060008060008060008060008060008060008060009054906101000a900473ffffffffffffffffffffffffffffffffffffffff1673ffffffffffffffffffffffffffffffffffffffff1663ec56a3736040518163ffffffff167c010000000000000000000000000000000000000000000000000000000002815260040180807f646f6361757468000000000000000000000000000000000000000000000000008152506020019050602060405180830381600087803b15156108e157600080fd5b5af115156108ee57600080fd5b5050506040518051905096508673ffffffffffffffffffffffffffffffffffffffff1663b10d6b418f6040518263ffffffff167c010000000000000000000000000000000000000000000000000000000002815260040180826000191660001916815260200191505060c060405180830381600087803b151561097057600080fd5b5af1151561097d57600080fd5b50505060405180519060200180519060200180519060200180519060200180519060200180519050809650819750829850839950849a50859b505050505050508585858585859c509c509c509c509c509c505050505050505091939550919395565b60a0604051908101604052806005905b60008019168152602001906001900390816109ef5790505090565b60a0604051908101604052806005905b6000815260200190600190039081610a1a5790505090565b60a0604051908101604052806005905b60001515815260200190600190039081610a4257905050905600a165627a7a72305820bdfdc98faa686674bfd434c991cab484bb7a3f3d7ca8858ac768f54e25594b190029",
  "source": "pragma solidity ^0.4.17;\r\n\r\nimport './DougEnabled.sol';\r\nimport './DocAuth.sol';\r\n\r\n// The Doc Manager\r\n\r\ncontract DocManager is DougEnabled {\r\n\r\n    // We still want a owner\r\n    address owner;\r\n\r\n    //Constructor\r\n    function DocManager () public {\r\n        owner  = msg.sender;\r\n    }\r\n\r\n    // Attempt to register the document\r\n    function register(bytes32 _hash, bytes32 _author,bytes32 _title,bytes32 _email,uint256 _dateWritten) public returns (bool) {\r\n        if (_hash == 0x0 || _author == 0x0 || _title == 0x0 || _email == 0x0 || _dateWritten == 0) {\r\n            return false;\r\n        }\r\n\r\n        address docauth = ContractProvider(DOUG).contracts(\"docauth\");\r\n        //address permsdb = ContractProvider(DOUG).contracts(\"permsdb\");\r\n\r\n       // if (docauth == 0x0 || permsdb == 0x0 || PermissionsDB(permsdb).perms(msg.sender) < 1 ) {\r\n           if (docauth == 0X0 ) {\r\n            // if the user send money, we should return it if we can't register\r\n            //msg.sender.send(msg.value);\r\n            return false;\r\n        }\r\n\r\n        // Use the interface to call on the bank contract. We pass the parameters along as well.\r\n\r\n        bool success = DocAuth(docauth).register(_hash, _author, _title, _email, _dateWritten);\r\n\r\n        // if the transaction failed, return the Ether to the caller\r\n        if (!success) {\r\n           // msg.sender.send(msg.value);\r\n        }\r\n        return success;\r\n\r\n    }\r\n\r\n    function getDocument(bytes32 _hash) public view returns (bytes32,bytes32,bytes32,uint256,uint256, bool) {\r\n            address docauth = ContractProvider(DOUG).contracts(\"docauth\");\r\n            bytes32 docAuthor;\r\n            bytes32 docTitle;\r\n            bytes32 docEmail;\r\n            uint256 docdateWritten;\r\n            uint256 docdateRegistered;\r\n            bool docisInitialized;\r\n\r\n\r\n            (docAuthor, docTitle, docEmail, docdateWritten, docdateRegistered, docisInitialized) = DocAuth(docauth).getDocument(_hash);\r\n\r\n\r\n         return (docAuthor, docTitle, docEmail, docdateWritten, docdateRegistered, docisInitialized);\r\n     }\r\n\r\n\t function getDocumentByAuthorName(bytes32 _author) public view returns (bytes32[5],uint256[5], uint256[5], bool[5], bytes32, bytes32) {\r\n\t\t address docauth = ContractProvider(DOUG).contracts(\"docauth\");\r\n\r\n\t\t return DocAuth(docauth).getDocumentByAuthorName(_author);\r\n\r\n\t}\r\n}\r\n",
  "sourcePath": "C:\\BDA\\T1\\HowestBDAGroep1-master\\truffle\\contracts\\DocManager.sol",
  "compiler": {
    "name": "solc",
    "version": "0.4.21+commit.dfe3193c.Emscripten.clang"
  },
  "schemaVersion": "2.0.0",
  "updatedAt": "2018-04-15T19:22:20.698Z"
}