{
  "contractName": "DougEnabled",
  "abi": [
    {
      "constant": false,
      "inputs": [
        {
          "name": "dougAddr",
          "type": "address"
        }
      ],
      "name": "setDOUGAddress",
      "outputs": [
        {
          "name": "result",
          "type": "bool"
        }
      ],
      "payable": false,
      "stateMutability": "nonpayable",
      "type": "function"
    },
    {
      "constant": false,
      "inputs": [],
      "name": "remove",
      "outputs": [],
      "payable": false,
      "stateMutability": "nonpayable",
      "type": "function"
    }
  ],
  "bytecode": "0x6060604052341561000f57600080fd5b6102628061001e6000396000f30060606040526004361061004c576000357c0100000000000000000000000000000000000000000000000000000000900463ffffffff1680631625df9114610051578063a7f43779146100a2575b600080fd5b341561005c57600080fd5b610088600480803573ffffffffffffffffffffffffffffffffffffffff169060200190919050506100b7565b604051808215151515815260200191505060405180910390f35b34156100ad57600080fd5b6100b56101a5565b005b6000806000809054906101000a900473ffffffffffffffffffffffffffffffffffffffff1673ffffffffffffffffffffffffffffffffffffffff161415801561014d57506000809054906101000a900473ffffffffffffffffffffffffffffffffffffffff1673ffffffffffffffffffffffffffffffffffffffff163373ffffffffffffffffffffffffffffffffffffffff1614155b1561015b57600090506101a0565b816000806101000a81548173ffffffffffffffffffffffffffffffffffffffff021916908373ffffffffffffffffffffffffffffffffffffffff160217905550600190505b919050565b6000809054906101000a900473ffffffffffffffffffffffffffffffffffffffff1673ffffffffffffffffffffffffffffffffffffffff163373ffffffffffffffffffffffffffffffffffffffff161415610234576000809054906101000a900473ffffffffffffffffffffffffffffffffffffffff1673ffffffffffffffffffffffffffffffffffffffff16ff5b5600a165627a7a723058207ca2ca86102234c6aca93e013d8ab0b65449e894837486ecabd0421b249546310029",
  "source": "pragma solidity ^0.4.17;\r\n\r\nimport './ContractProvider.sol'; \r\n\r\n// Base class for contracts that are used in a doug system.\r\n\r\ncontract DougEnabled {\r\n    address DOUG;\r\n\r\n    function setDOUGAddress(address dougAddr) returns (bool result) {\r\n        // Once the doug address is set, don't allow it to be set again, except by the doug contract itself\r\n        if (DOUG != 0x0 && msg.sender != DOUG) {\r\n            return false;\r\n        }\r\n        DOUG = dougAddr;\r\n        return true;\r\n    }\r\n\r\n    // Makes it so that Doug is the only contract that may kill it\r\n    function remove() {\r\n        if (msg.sender == DOUG) {\r\n            selfdestruct(DOUG);\r\n        }\r\n    }\r\n}",
  "sourcePath": "c:\\Blockchain\\GitHub\\HowestBDAGroep1\\truffle\\contracts\\DougEnabled.sol",
  "compiler": {
    "name": "solc",
    "version": "0.4.19+commit.c4cbbb05.Emscripten.clang"
  },
  "schemaVersion": "2.0.0",
  "updatedAt": "2018-04-09T15:56:30.451Z"
}