{
  "contractName": "ContractProvider",
  "abi": [
    {
      "constant": false,
      "inputs": [
        {
          "name": "name",
          "type": "bytes32"
        }
      ],
      "name": "contracts",
      "outputs": [
        {
          "name": "addr",
          "type": "address"
        }
      ],
      "payable": false,
      "stateMutability": "nonpayable",
      "type": "function"
    }
  ],
  "bytecode": "0x6060604052341561000f57600080fd5b60db8061001d6000396000f300606060405260043610603f576000357c0100000000000000000000000000000000000000000000000000000000900463ffffffff168063ec56a373146044575b600080fd5b3415604e57600080fd5b606660048080356000191690602001909190505060a8565b604051808273ffffffffffffffffffffffffffffffffffffffff1673ffffffffffffffffffffffffffffffffffffffff16815260200191505060405180910390f35b60009190505600a165627a7a72305820c49e8dc6711618475037df1a5b65b883738d55a238ad6196833f70caab2b3fa30029",
  "source": "pragma solidity ^0.4.17;\r\n\r\n// Interface for getting contracts from Doug\r\ncontract ContractProvider {\r\n    function contracts (bytes32 name) public returns (address addr) {}\r\n} \r\n\r\n",
  "sourcePath": "c:\\Blockchain\\GitHub\\HowestBDAGroep1\\truffle\\contracts\\ContractProvider.sol",
  "compiler": {
    "name": "solc",
    "version": "0.4.19+commit.c4cbbb05.Emscripten.clang"
  },
  "schemaVersion": "2.0.0",
  "updatedAt": "2018-04-12T17:43:45.222Z"
}