{
  "contractName": "ContractProvider",
  "abi": [
    {
      "constant": false,
      "inputs": [
        {
          "name": "name",
          "type": "bytes32"
        }
      ],
      "name": "contracts",
      "outputs": [
        {
          "name": "",
          "type": "address"
        }
      ],
      "payable": false,
      "stateMutability": "nonpayable",
      "type": "function"
    }
  ],
  "bytecode": "0x6060604052341561000f57600080fd5b60db8061001d6000396000f300606060405260043610603f576000357c0100000000000000000000000000000000000000000000000000000000900463ffffffff168063ec56a373146044575b600080fd5b3415604e57600080fd5b606660048080356000191690602001909190505060a8565b604051808273ffffffffffffffffffffffffffffffffffffffff1673ffffffffffffffffffffffffffffffffffffffff16815260200191505060405180910390f35b60009190505600a165627a7a72305820b14360aedb0e446a40b383030c44357d3f976b7e60af14378ce3a7f290fdce390029",
  "source": "pragma solidity ^0.4.17;\n\n// Interface for getting contracts from Doug\ncontract ContractProvider {\n    function contracts (bytes32 name) public returns (address) {}\n}\n",
  "sourcePath": "/Users/thomas/BDA/HowestBDAGroep1/truffle/contracts/ContractProvider.sol",
  "compiler": {
    "name": "solc",
    "version": "0.4.18+commit.9cf6e910.Emscripten.clang"
  },
  "schemaVersion": "1.0.1",
  "updatedAt": "2018-04-13T22:57:24.269Z"
}