{
  "contractName": "DocAuthDB",
  "abi": [
    {
      "constant": false,
      "inputs": [
        {
          "name": "dougAddr",
          "type": "address"
        }
      ],
      "name": "setDOUGAddress",
      "outputs": [
        {
          "name": "result",
          "type": "bool"
        }
      ],
      "payable": false,
      "stateMutability": "nonpayable",
      "type": "function"
    },
    {
      "constant": false,
      "inputs": [],
      "name": "remove",
      "outputs": [],
      "payable": false,
      "stateMutability": "nonpayable",
      "type": "function"
    },
    {
      "constant": true,
      "inputs": [
        {
          "name": "_hash",
          "type": "bytes32"
        }
      ],
      "name": "getDocument",
      "outputs": [
        {
          "name": "",
          "type": "bytes32"
        },
        {
          "name": "",
          "type": "bytes32"
        },
        {
          "name": "",
          "type": "bytes32"
        },
        {
          "name": "",
          "type": "uint256"
        },
        {
          "name": "",
          "type": "uint256"
        },
        {
          "name": "",
          "type": "bool"
        }
      ],
      "payable": false,
      "stateMutability": "view",
      "type": "function"
    },
    {
      "constant": false,
      "inputs": [
        {
          "name": "_hash",
          "type": "bytes32"
        },
        {
          "name": "_author",
          "type": "bytes32"
        },
        {
          "name": "_title",
          "type": "bytes32"
        },
        {
          "name": "_email",
          "type": "bytes32"
        },
        {
          "name": "_dateWritten",
          "type": "uint256"
        }
      ],
      "name": "register",
      "outputs": [
        {
          "name": "",
          "type": "bool"
        }
      ],
      "payable": false,
      "stateMutability": "nonpayable",
      "type": "function"
    },
    {
      "constant": true,
      "inputs": [
        {
          "name": "_hash",
          "type": "bytes32"
        }
      ],
      "name": "isDocumentRegistered",
      "outputs": [
        {
          "name": "",
          "type": "bool"
        }
      ],
      "payable": false,
      "stateMutability": "view",
      "type": "function"
    },
    {
      "constant": false,
      "inputs": [
        {
          "name": "_author",
          "type": "bytes32"
        }
      ],
      "name": "getDocumentByAuthorName",
      "outputs": [
        {
          "name": "title",
          "type": "bytes32[5]"
        },
        {
          "name": "dateWritten",
          "type": "uint256[5]"
        },
        {
          "name": "dateRegistered",
          "type": "uint256[5]"
        },
        {
          "name": "isInitialized",
          "type": "bool[5]"
        },
        {
          "name": "author",
          "type": "bytes32"
        },
        {
          "name": "email",
          "type": "bytes32"
        }
      ],
      "payable": false,
      "stateMutability": "nonpayable",
      "type": "function"
    }
  ],
  "bytecode": "0x6060604052341561000f57600080fd5b610a3d8061001e6000396000f300606060405260043610610078576000357c0100000000000000000000000000000000000000000000000000000000900463ffffffff1680631625df911461007d578063618e6ce6146100ce5780637a1a59561461010d5780637b0e88961461017c578063a7f437791461028a578063b10d6b411461029f575b600080fd5b341561008857600080fd5b6100b4600480803573ffffffffffffffffffffffffffffffffffffffff16906020019091905050610319565b604051808215151515815260200191505060405180910390f35b34156100d957600080fd5b6100f3600480803560001916906020019091905050610407565b604051808215151515815260200191505060405180910390f35b341561011857600080fd5b610162600480803560001916906020019091908035600019169060200190919080356000191690602001909190803560001916906020019091908035906020019091905050610434565b604051808215151515815260200191505060405180910390f35b341561018757600080fd5b6101a160048080356000191690602001909190505061071c565b6040518087600560200280838360005b838110156101cc5780820151818401526020810190506101b1565b5050505090500186600560200280838360005b838110156101fa5780820151818401526020810190506101df565b5050505090500185600560200280838360005b8381101561022857808201518184015260208101905061020d565b5050505090500184600560200280838360005b8381101561025657808201518184015260208101905061023b565b5050505090500183600019166000191681526020018260001916600019168152602001965050505050505060405180910390f35b341561029557600080fd5b61029d61089a565b005b34156102aa57600080fd5b6102c460048080356000191690602001909190505061092b565b6040518087600019166000191681526020018660001916600019168152602001856000191660001916815260200184815260200183815260200182151515158152602001965050505050505060405180910390f35b6000806000809054906101000a900473ffffffffffffffffffffffffffffffffffffffff1673ffffffffffffffffffffffffffffffffffffffff16141580156103af57506000809054906101000a900473ffffffffffffffffffffffffffffffffffffffff1673ffffffffffffffffffffffffffffffffffffffff163373ffffffffffffffffffffffffffffffffffffffff1614155b156103bd5760009050610402565b816000806101000a81548173ffffffffffffffffffffffffffffffffffffffff021916908373ffffffffffffffffffffffffffffffffffffffff160217905550600190505b919050565b6000806104138361092b565b90919293945090919293509091925090915090508091505080915050919050565b60008060008060008060009054906101000a900473ffffffffffffffffffffffffffffffffffffffff1673ffffffffffffffffffffffffffffffffffffffff1614151561070f576000809054906101000a900473ffffffffffffffffffffffffffffffffffffffff1673ffffffffffffffffffffffffffffffffffffffff1663ec56a3736040518163ffffffff167c010000000000000000000000000000000000000000000000000000000002815260040180807f646f6361757468000000000000000000000000000000000000000000000000008152506020019050602060405180830381600087803b151561052a57600080fd5b5af1151561053757600080fd5b5050506040518051905092508273ffffffffffffffffffffffffffffffffffffffff163373ffffffffffffffffffffffffffffffffffffffff16148015610584575061058289610407565b155b1561070657600160008a60001916600019168152602001908152602001600020915087826000018160001916905550868260010181600019169055508582600201816000191690555084826003018190555042826004018190555060018260050160006101000a81548160ff021916908315150217905550600090505b6002600089600019166000191681526020019081526020016000208160058110151561062957fe5b6006020160050160009054906101000a900460ff16801561064a5750600581105b1561065c578080600101915050610601565b81600260008a600019166000191681526020019081526020016000208260058110151561068557fe5b6006020160008201548160000190600019169055600182015481600101906000191690556002820154816002019060001916905560038201548160030155600482015481600401556005820160009054906101000a900460ff168160050160006101000a81548160ff02191690831515021790555090505060019350610710565b60009350610710565b5b50505095945050505050565b610724610994565b61072c6109bf565b6107346109bf565b61073c6109e7565b600080600080600260008a600019166000191681526020019081526020016000209150600090505b600581101561084b57818160058110151561077b57fe5b6006020160010154888260058110151561079157fe5b6020020190600019169081600019168152505081816005811015156107b257fe5b600602016003015487826005811015156107c857fe5b60200201818152505081816005811015156107df57fe5b600602016004015486826005811015156107f557fe5b602002018181525050818160058110151561080c57fe5b6006020160050160009054906101000a900460ff16858260058110151561082f57fe5b6020020190151590811515815250508080600101915050610764565b81600060058110151561085a57fe5b6006020160000154935081600060058110151561087357fe5b60060201600201549250878787878787975097509750975097509750505091939550919395565b6000809054906101000a900473ffffffffffffffffffffffffffffffffffffffff1673ffffffffffffffffffffffffffffffffffffffff163373ffffffffffffffffffffffffffffffffffffffff161415610929576000809054906101000a900473ffffffffffffffffffffffffffffffffffffffff1673ffffffffffffffffffffffffffffffffffffffff16ff5b565b60008060008060008060006001600089600019166000191681526020019081526020016000209050806000015481600101548260020154836003015484600401548560050160009054906101000a900460ff169650965096509650965096505091939550919395565b60a0604051908101604052806005905b60008019168152602001906001900390816109a45790505090565b60a0604051908101604052806005905b60008152602001906001900390816109cf5790505090565b60a0604051908101604052806005905b600015158152602001906001900390816109f757905050905600a165627a7a72305820e438a5a6a0da22c1f01e252cbb5b63a7de9a37185dc002b4a9293006f285e6300029",
  "source": "pragma solidity ^0.4.17;\r\n\r\nimport './DocManagerEnabled.sol';\r\n\r\n// The Doc Auth database\r\ncontract DocAuthDB is DougEnabled {\r\n\r\n   //This is where we keep all the contracts\r\n    mapping(bytes32 => Document) private documentLibrary;\r\n    mapping(bytes32 => Document[5]) private authorLibrary;\r\n\r\n    /// Function gets an entry from the document library. Returns the metadata of the document.\r\n    /// Will always return a Document object, even when the document doesn't exist.\r\n    /// Check the property \"isInitialized\" to confirm it's not an empty value.\r\n    function getDocument(bytes32 _hash) public view returns (bytes32,bytes32,bytes32,uint256,uint256, bool) {\r\n        //todo: teruggeven van struct is blijkbaar niet goed. Hervormen naar tuple.\r\n        //https://ethereum.stackexchange.com/questions/3609/returning-a-struct-and-reading-via-web3/3614#3614\r\n        Document storage _document = documentLibrary[_hash];\r\n        return (_document.author, _document.title, _document.email, _document.dateWritten, _document.dateRegistered, _document.isInitialized);\r\n    }\r\n\r\n    function register(bytes32 _hash, bytes32 _author,bytes32 _title,bytes32 _email,uint256 _dateWritten) public returns (bool) {\r\n        if (DOUG != 0x0) {\r\n            address docauth = ContractProvider(DOUG).contracts(\"docauth\");\r\n            if (msg.sender == docauth && !isDocumentRegistered(_hash) ) {\r\n                Document storage _document = documentLibrary[_hash];\r\n                _document.author = _author;\r\n                _document.title = _title;\r\n                _document.email = _email;\r\n                _document.dateWritten = _dateWritten;\r\n                _document.dateRegistered = block.timestamp;\r\n                _document.isInitialized = true;\r\n\r\n                uint i = 0;\r\n                while(authorLibrary[_author][i].isInitialized && i < 5) //limited to max 5\r\n                {\r\n                  i++;\r\n                }\r\n                authorLibrary[_author][i] = _document;\r\n\r\n                return true;\r\n            }\r\n           else {\r\n               // Return if registration cannot be made\r\n               //msg.sender.send(msg.value);\r\n               return false;\r\n            }\r\n        }\r\n    }\r\n\r\n    function isDocumentRegistered(bytes32 _hash) public view returns (bool) {\r\n        bool _storedIsInitialized;\r\n        (, , , , , _storedIsInitialized) = getDocument(_hash);\r\n        return _storedIsInitialized;\r\n    }\r\n\r\n\tfunction getDocumentByAuthorName(bytes32 _author) public returns (bytes32[5] title,uint256[5] dateWritten, uint256[5] dateRegistered, bool[5] isInitialized, bytes32 author, bytes32 email) {\r\n\t\tDocument[5] _docs = authorLibrary[_author];\r\n\r\n    for (uint i = 0; i < 5; i++)\r\n    {\r\n        title[i] = _docs[i].title;\r\n        dateWritten[i] = _docs[i].dateWritten;\r\n        dateRegistered[i] = _docs[i].dateRegistered;\r\n        isInitialized[i] = _docs[i].isInitialized;\r\n    }\r\n    author = _docs[0].author;\r\n    email = _docs[0].email;\r\n    return (title, dateWritten, dateRegistered, isInitialized, author, email);\r\n\t}\r\n\r\n    struct Document {\r\n        bytes32  author;\r\n        bytes32  title;\r\n        bytes32  email;\r\n        uint256  dateWritten;\r\n        uint256  dateRegistered;\r\n        bool  isInitialized;\r\n    }\r\n\r\n\r\n}\r\n",
  "sourcePath": "C:\\BDA\\T1\\HowestBDAGroep1-master\\truffle\\contracts\\DocAuthDB.sol",
  "compiler": {
    "name": "solc",
    "version": "0.4.21+commit.dfe3193c.Emscripten.clang"
  },
  "schemaVersion": "2.0.0",
  "updatedAt": "2018-04-23T18:58:24.320Z"
}