{
  "contractName": "DocAuth",
  "abi": [
    {
      "constant": false,
      "inputs": [
        {
          "name": "dougAddr",
          "type": "address"
        }
      ],
      "name": "setDOUGAddress",
      "outputs": [
        {
          "name": "result",
          "type": "bool"
        }
      ],
      "payable": false,
      "stateMutability": "nonpayable",
      "type": "function"
    },
    {
      "constant": true,
      "inputs": [],
      "name": "isDocManager",
      "outputs": [
        {
          "name": "",
          "type": "bool"
        }
      ],
      "payable": false,
      "stateMutability": "view",
      "type": "function"
    },
    {
      "constant": false,
      "inputs": [],
      "name": "remove",
      "outputs": [],
      "payable": false,
      "stateMutability": "nonpayable",
      "type": "function"
    },
    {
      "constant": false,
      "inputs": [
        {
          "name": "_hash",
          "type": "bytes32"
        },
        {
          "name": "_author",
          "type": "bytes32"
        },
        {
          "name": "_title",
          "type": "bytes32"
        },
        {
          "name": "_email",
          "type": "bytes32"
        },
        {
          "name": "_dateWritten",
          "type": "uint256"
        }
      ],
      "name": "register",
      "outputs": [
        {
          "name": "res",
          "type": "bool"
        }
      ],
      "payable": false,
      "stateMutability": "nonpayable",
      "type": "function"
    }
  ],
  "bytecode": "0x6060604052341561000f57600080fd5b6106688061001e6000396000f300606060405260043610610062576000357c0100000000000000000000000000000000000000000000000000000000900463ffffffff1680631625df91146100675780636fb35b43146100b85780637a1a5956146100e5578063a7f4377914610154575b600080fd5b341561007257600080fd5b61009e600480803573ffffffffffffffffffffffffffffffffffffffff16906020019091905050610169565b604051808215151515815260200191505060405180910390f35b34156100c357600080fd5b6100cb610257565b604051808215151515815260200191505060405180910390f35b34156100f057600080fd5b61013a6004808035600019169060200190919080356000191690602001909190803560001916906020019091908035600019169060200190919080359060200190919050506103af565b604051808215151515815260200191505060405180910390f35b341561015f57600080fd5b6101676105ab565b005b6000806000809054906101000a900473ffffffffffffffffffffffffffffffffffffffff1673ffffffffffffffffffffffffffffffffffffffff16141580156101ff57506000809054906101000a900473ffffffffffffffffffffffffffffffffffffffff1673ffffffffffffffffffffffffffffffffffffffff163373ffffffffffffffffffffffffffffffffffffffff1614155b1561020d5760009050610252565b816000806101000a81548173ffffffffffffffffffffffffffffffffffffffff021916908373ffffffffffffffffffffffffffffffffffffffff160217905550600190505b919050565b60008060008060009054906101000a900473ffffffffffffffffffffffffffffffffffffffff1673ffffffffffffffffffffffffffffffffffffffff161415156103a6576000809054906101000a900473ffffffffffffffffffffffffffffffffffffffff1673ffffffffffffffffffffffffffffffffffffffff1663ec56a3736000604051602001526040518163ffffffff167c010000000000000000000000000000000000000000000000000000000002815260040180807f646f636d616e61676572000000000000000000000000000000000000000000008152506020019050602060405180830381600087803b151561035357600080fd5b6102c65a03f1151561036457600080fd5b5050506040518051905090508073ffffffffffffffffffffffffffffffffffffffff163373ffffffffffffffffffffffffffffffffffffffff161491506103ab565b600091505b5090565b60008060006103bc610257565b15156103cb57600092506105a0565b6000809054906101000a900473ffffffffffffffffffffffffffffffffffffffff1673ffffffffffffffffffffffffffffffffffffffff1663ec56a3736000604051602001526040518163ffffffff167c010000000000000000000000000000000000000000000000000000000002815260040180807f646f6361757468646200000000000000000000000000000000000000000000008152506020019050602060405180830381600087803b151561048357600080fd5b6102c65a03f1151561049457600080fd5b50505060405180519050915060008273ffffffffffffffffffffffffffffffffffffffff1614156104c857600092506105a0565b8173ffffffffffffffffffffffffffffffffffffffff16637a1a595689898989896000604051602001526040518663ffffffff167c010000000000000000000000000000000000000000000000000000000002815260040180866000191660001916815260200185600019166000191681526020018460001916600019168152602001836000191660001916815260200182815260200195505050505050602060405180830381600087803b151561057f57600080fd5b6102c65a03f1151561059057600080fd5b5050506040518051905090508092505b505095945050505050565b6000809054906101000a900473ffffffffffffffffffffffffffffffffffffffff1673ffffffffffffffffffffffffffffffffffffffff163373ffffffffffffffffffffffffffffffffffffffff16141561063a576000809054906101000a900473ffffffffffffffffffffffffffffffffffffffff1673ffffffffffffffffffffffffffffffffffffffff16ff5b5600a165627a7a7230582098385a13231aa51d3c32b61e646b3bf77e2b9ffa0778cab0458beb2cabb21b500029",
  "source": "pragma solidity ^0.4.18;\r\n\r\nimport './DocManagerEnabled.sol';\r\nimport './DocAuthDB.sol';\r\n\r\n// Doc Auth\r\ncontract DocAuth is DocManagerEnabled {\r\n\r\n    // Attempt to register the document\r\n    function register(bytes32 _hash, bytes32 _author,bytes32 _title,bytes32 _email,uint256 _dateWritten) public returns (bool res) {\r\n        if (!isDocManager()) {\r\n            return false;\r\n        }\r\n\r\n        address docauthdb = ContractProvider(DOUG).contracts(\"docauthdb\");\r\n        if (docauthdb == 0x0) {\r\n            // document can not be registered\r\n            // Note - if registration costs money we should return it msg.sender.send(msg.value);\r\n            return false;\r\n        }\r\n\r\n        // Use the interface to call on the docauthdb contract. We pass allong all the parameters as well\r\n        bool success = DocAuthDB(docauthdb).register(_hash, _author, _title, _email, _dateWritten);\r\n\r\n        // if the transation failed, return the ether to the caller.\r\n        // note : we rekenen voor de moment geen kost aan -> dus dit stukje is misschien wat overbodig ?\r\n        if (!success) {\r\n            //msg.sender.send(msg.value);\r\n        }\r\n        return success;\r\n    }\r\n}",
  "sourcePath": "c:\\Blockchain\\GitHub\\HowestBDAGroep1\\truffle\\contracts\\DocAuth.sol",
  "compiler": {
    "name": "solc",
    "version": "0.4.19+commit.c4cbbb05.Emscripten.clang"
  },
  "schemaVersion": "2.0.0",
  "updatedAt": "2018-04-12T17:43:45.226Z"
}