{
  "contractName": "DocAuth",
  "abi": [
    {
      "constant": false,
      "inputs": [
        {
          "name": "dougAddr",
          "type": "address"
        }
      ],
      "name": "setDOUGAddress",
      "outputs": [
        {
          "name": "result",
          "type": "bool"
        }
      ],
      "payable": false,
      "stateMutability": "nonpayable",
      "type": "function"
    },
    {
      "constant": false,
      "inputs": [],
      "name": "isDocManager",
      "outputs": [
        {
          "name": "",
          "type": "bool"
        }
      ],
      "payable": false,
      "stateMutability": "nonpayable",
      "type": "function"
    },
    {
      "constant": false,
      "inputs": [
        {
          "name": "_hash",
          "type": "bytes32"
        },
        {
          "name": "_author",
          "type": "bytes32"
        },
        {
          "name": "_title",
          "type": "bytes32"
        },
        {
          "name": "_email",
          "type": "bytes32"
        },
        {
          "name": "_dateWritten",
          "type": "uint256"
        }
      ],
      "name": "register",
      "outputs": [
        {
          "name": "res",
          "type": "bool"
        }
      ],
      "payable": false,
      "stateMutability": "nonpayable",
      "type": "function"
    },
    {
      "constant": true,
      "inputs": [
        {
          "name": "_author",
          "type": "bytes32"
        }
      ],
      "name": "getDocumentByAuthorName",
      "outputs": [
        {
          "name": "",
          "type": "bytes32[10]"
        }
      ],
      "payable": false,
      "stateMutability": "view",
      "type": "function"
    },
    {
      "constant": false,
      "inputs": [],
      "name": "remove",
      "outputs": [],
      "payable": false,
      "stateMutability": "nonpayable",
      "type": "function"
    },
    {
      "constant": true,
      "inputs": [
        {
          "name": "_hash",
          "type": "bytes32"
        }
      ],
      "name": "getDocument",
      "outputs": [
        {
          "name": "",
          "type": "bytes32"
        },
        {
          "name": "",
          "type": "bytes32"
        },
        {
          "name": "",
          "type": "bytes32"
        },
        {
          "name": "",
          "type": "uint256"
        },
        {
          "name": "",
          "type": "uint256"
        },
        {
          "name": "",
          "type": "bool"
        }
      ],
      "payable": false,
      "stateMutability": "view",
      "type": "function"
    }
  ],
  "bytecode": "0x6060604052341561000f57600080fd5b610ae98061001e6000396000f300606060405260043610610078576000357c0100000000000000000000000000000000000000000000000000000000900463ffffffff1680631625df911461007d5780636fb35b43146100ce5780637a1a5956146100fb5780637b0e88961461016a578063a7f43779146101cd578063b10d6b41146101e2575b600080fd5b341561008857600080fd5b6100b4600480803573ffffffffffffffffffffffffffffffffffffffff1690602001909190505061025c565b604051808215151515815260200191505060405180910390f35b34156100d957600080fd5b6100e161034a565b604051808215151515815260200191505060405180910390f35b341561010657600080fd5b6101506004808035600019169060200190919080356000191690602001909190803560001916906020019091908035600019169060200190919080359060200190919050506104a2565b604051808215151515815260200191505060405180910390f35b341561017557600080fd5b61018f60048080356000191690602001909190505061069e565b6040518082600a60200280838360005b838110156101ba57808201518184015260208101905061019f565b5050505090500191505060405180910390f35b34156101d857600080fd5b6101e0610825565b005b34156101ed57600080fd5b6102076004808035600019169060200190919050506108b6565b6040518087600019166000191681526020018660001916600019168152602001856000191660001916815260200184815260200183815260200182151515158152602001965050505050505060405180910390f35b6000806000809054906101000a900473ffffffffffffffffffffffffffffffffffffffff1673ffffffffffffffffffffffffffffffffffffffff16141580156102f257506000809054906101000a900473ffffffffffffffffffffffffffffffffffffffff1673ffffffffffffffffffffffffffffffffffffffff163373ffffffffffffffffffffffffffffffffffffffff1614155b156103005760009050610345565b816000806101000a81548173ffffffffffffffffffffffffffffffffffffffff021916908373ffffffffffffffffffffffffffffffffffffffff160217905550600190505b919050565b60008060008060009054906101000a900473ffffffffffffffffffffffffffffffffffffffff1673ffffffffffffffffffffffffffffffffffffffff16141515610499576000809054906101000a900473ffffffffffffffffffffffffffffffffffffffff1673ffffffffffffffffffffffffffffffffffffffff1663ec56a3736000604051602001526040518163ffffffff167c010000000000000000000000000000000000000000000000000000000002815260040180807f646f636d616e61676572000000000000000000000000000000000000000000008152506020019050602060405180830381600087803b151561044657600080fd5b6102c65a03f1151561045757600080fd5b5050506040518051905090508073ffffffffffffffffffffffffffffffffffffffff163373ffffffffffffffffffffffffffffffffffffffff1614915061049e565b600091505b5090565b60008060006104af61034a565b15156104be5760009250610693565b6000809054906101000a900473ffffffffffffffffffffffffffffffffffffffff1673ffffffffffffffffffffffffffffffffffffffff1663ec56a3736000604051602001526040518163ffffffff167c010000000000000000000000000000000000000000000000000000000002815260040180807f646f6361757468646200000000000000000000000000000000000000000000008152506020019050602060405180830381600087803b151561057657600080fd5b6102c65a03f1151561058757600080fd5b50505060405180519050915060008273ffffffffffffffffffffffffffffffffffffffff1614156105bb5760009250610693565b8173ffffffffffffffffffffffffffffffffffffffff16637a1a595689898989896000604051602001526040518663ffffffff167c010000000000000000000000000000000000000000000000000000000002815260040180866000191660001916815260200185600019166000191681526020018460001916600019168152602001836000191660001916815260200182815260200195505050505050602060405180830381600087803b151561067257600080fd5b6102c65a03f1151561068357600080fd5b5050506040518051905090508092505b505095945050505050565b6106a6610a91565b60008060009054906101000a900473ffffffffffffffffffffffffffffffffffffffff1673ffffffffffffffffffffffffffffffffffffffff1663ec56a3736000604051602001526040518163ffffffff167c010000000000000000000000000000000000000000000000000000000002815260040180807f646f6361757468646200000000000000000000000000000000000000000000008152506020019050602060405180830381600087803b151561076057600080fd5b6102c65a03f1151561077157600080fd5b5050506040518051905090508073ffffffffffffffffffffffffffffffffffffffff16637b0e889684600060405161014001526040518263ffffffff167c010000000000000000000000000000000000000000000000000000000002815260040180826000191660001916815260200191505061014060405180830381600087803b15156107fe57600080fd5b6102c65a03f1151561080f57600080fd5b5050506040518061014001604052915050919050565b6000809054906101000a900473ffffffffffffffffffffffffffffffffffffffff1673ffffffffffffffffffffffffffffffffffffffff163373ffffffffffffffffffffffffffffffffffffffff1614156108b4576000809054906101000a900473ffffffffffffffffffffffffffffffffffffffff1673ffffffffffffffffffffffffffffffffffffffff16ff5b565b60008060008060008060008060008060008060008060009054906101000a900473ffffffffffffffffffffffffffffffffffffffff1673ffffffffffffffffffffffffffffffffffffffff1663ec56a3736000604051602001526040518163ffffffff167c010000000000000000000000000000000000000000000000000000000002815260040180807f646f6361757468646200000000000000000000000000000000000000000000008152506020019050602060405180830381600087803b151561098257600080fd5b6102c65a03f1151561099357600080fd5b5050506040518051905096508673ffffffffffffffffffffffffffffffffffffffff1663b10d6b418f600060405160c001526040518263ffffffff167c010000000000000000000000000000000000000000000000000000000002815260040180826000191660001916815260200191505060c060405180830381600087803b1515610a1e57600080fd5b6102c65a03f11515610a2f57600080fd5b50505060405180519060200180519060200180519060200180519060200180519060200180519050809650819750829850839950849a50859b505050505050508585858585859c509c509c509c509c509c505050505050505091939550919395565b61014060405190810160405280600a905b6000801916815260200190600190039081610aa257905050905600a165627a7a723058204d7e70961aef25b53f08a83c2a119a29b424fde7ccf7e2f3bfab01b22d8014710029",
  "source": "pragma solidity ^0.4.18;\n\nimport './DocManagerEnabled.sol';\nimport './DocAuthDB.sol';\n\n// Doc Auth\ncontract DocAuth is DocManagerEnabled {\n\n    // Attempt to register the document\n    function register(bytes32 _hash, bytes32 _author,bytes32 _title,bytes32 _email,uint256 _dateWritten) public returns (bool res) {\n        if (!isDocManager()) {\n            return false;\n        }\n\n        address docauthdb = ContractProvider(DOUG).contracts(\"docauthdb\");\n        if (docauthdb == 0x0) {\n            // document can not be registered\n            // Note - if registration costs money we should return it msg.sender.send(msg.value);\n            return false;\n        }\n\n        // Use the interface to call on the docauthdb contract. We pass allong all the parameters as well\n        bool success = DocAuthDB(docauthdb).register(_hash, _author, _title, _email, _dateWritten);\n\n        // if the transation failed, return the ether to the caller.\n        // note : we rekenen voor de moment geen kost aan -> dus dit stukje is misschien wat overbodig ?\n        if (!success) {\n            //msg.sender.send(msg.value);\n        }\n        return success;\n    }\n     function getDocument(bytes32 _hash) public view returns (bytes32,bytes32,bytes32,uint256,uint256, bool) {\n            address docauthdb = ContractProvider(DOUG).contracts(\"docauthdb\");\n            bytes32 docAuthor;\n            bytes32 docTitle;\n            bytes32 docEmail;\n            uint256 docdateWritten;\n            uint256 docdateRegistered;\n            bool docisInitialized;\n\n\n            (docAuthor, docTitle, docEmail, docdateWritten, docdateRegistered, docisInitialized) = DocAuthDB(docauthdb).getDocument(_hash);\n\n\n         return (docAuthor, docTitle, docEmail, docdateWritten, docdateRegistered, docisInitialized);\n     }\n\n\t function getDocumentByAuthorName(bytes32 _author) public view returns (bytes32[10]) {\n\t\t address docauthdb = ContractProvider(DOUG).contracts(\"docauthdb\");\n\n\t\t return DocAuth(docauthdb).getDocumentByAuthorName(_author);\n\t}\n\n}\n",
  "sourcePath": "/Users/thomas/BDA/HowestBDAGroep1/truffle/contracts/DocAuth.sol",
  "compiler": {
    "name": "solc",
    "version": "0.4.18+commit.9cf6e910.Emscripten.clang"
  },
  "schemaVersion": "1.0.1",
  "updatedAt": "2018-04-13T22:57:24.278Z"
}