{
  "contractName": "DocAuthDB",
  "abi": [
    {
      "constant": false,
      "inputs": [
        {
          "name": "dougAddr",
          "type": "address"
        }
      ],
      "name": "setDOUGAddress",
      "outputs": [
        {
          "name": "result",
          "type": "bool"
        }
      ],
      "payable": false,
      "stateMutability": "nonpayable",
      "type": "function"
    },
    {
      "constant": true,
      "inputs": [],
      "name": "numDocuments",
      "outputs": [
        {
          "name": "",
          "type": "uint256"
        }
      ],
      "payable": false,
      "stateMutability": "view",
      "type": "function"
    },
    {
      "constant": false,
      "inputs": [],
      "name": "remove",
      "outputs": [],
      "payable": false,
      "stateMutability": "nonpayable",
      "type": "function"
    },
    {
      "constant": true,
      "inputs": [
        {
          "name": "_hash",
          "type": "bytes32"
        }
      ],
      "name": "getDocument",
      "outputs": [
        {
          "name": "",
          "type": "bytes32"
        },
        {
          "name": "",
          "type": "bytes32"
        },
        {
          "name": "",
          "type": "bytes32"
        },
        {
          "name": "",
          "type": "uint256"
        },
        {
          "name": "",
          "type": "uint256"
        },
        {
          "name": "",
          "type": "bool"
        }
      ],
      "payable": false,
      "stateMutability": "view",
      "type": "function"
    },
    {
      "constant": false,
      "inputs": [
        {
          "name": "_hash",
          "type": "bytes32"
        },
        {
          "name": "_author",
          "type": "bytes32"
        },
        {
          "name": "_title",
          "type": "bytes32"
        },
        {
          "name": "_email",
          "type": "bytes32"
        },
        {
          "name": "_dateWritten",
          "type": "uint256"
        }
      ],
      "name": "register",
      "outputs": [
        {
          "name": "",
          "type": "bool"
        }
      ],
      "payable": false,
      "stateMutability": "nonpayable",
      "type": "function"
    },
    {
      "constant": true,
      "inputs": [
        {
          "name": "_hash",
          "type": "bytes32"
        }
      ],
      "name": "isDocumentRegistered",
      "outputs": [
        {
          "name": "",
          "type": "bool"
        }
      ],
      "payable": false,
      "stateMutability": "view",
      "type": "function"
    },
    {
      "constant": true,
      "inputs": [
        {
          "name": "_author",
          "type": "bytes32"
        }
      ],
      "name": "getDocumentByAuthorName",
      "outputs": [
        {
          "name": "result",
          "type": "bytes32[10]"
        }
      ],
      "payable": false,
      "stateMutability": "view",
      "type": "function"
    }
  ],
  "bytecode": "0x6060604052341561000f57600080fd5b61085c8061001e6000396000f300606060405260043610610083576000357c0100000000000000000000000000000000000000000000000000000000900463ffffffff1680631625df911461008857806341affd45146100d9578063618e6ce6146101025780637a1a5956146101415780637b0e8896146101b0578063a7f4377914610213578063b10d6b4114610228575b600080fd5b341561009357600080fd5b6100bf600480803573ffffffffffffffffffffffffffffffffffffffff169060200190919050506102a2565b604051808215151515815260200191505060405180910390f35b34156100e457600080fd5b6100ec610390565b6040518082815260200191505060405180910390f35b341561010d57600080fd5b610127600480803560001916906020019091905050610396565b604051808215151515815260200191505060405180910390f35b341561014c57600080fd5b6101966004808035600019169060200190919080356000191690602001909190803560001916906020019091908035600019169060200190919080359060200190919050506103c3565b604051808215151515815260200191505060405180910390f35b34156101bb57600080fd5b6101d56004808035600019169060200190919050506105e8565b6040518082600a60200280838360005b838110156102005780820151818401526020810190506101e5565b5050505090500191505060405180910390f35b341561021e57600080fd5b6102266106b9565b005b341561023357600080fd5b61024d60048080356000191690602001909190505061074a565b6040518087600019166000191681526020018660001916600019168152602001856000191660001916815260200184815260200183815260200182151515158152602001965050505050505060405180910390f35b6000806000809054906101000a900473ffffffffffffffffffffffffffffffffffffffff1673ffffffffffffffffffffffffffffffffffffffff161415801561033857506000809054906101000a900473ffffffffffffffffffffffffffffffffffffffff1673ffffffffffffffffffffffffffffffffffffffff163373ffffffffffffffffffffffffffffffffffffffff1614155b15610346576000905061038b565b816000806101000a81548173ffffffffffffffffffffffffffffffffffffffff021916908373ffffffffffffffffffffffffffffffffffffffff160217905550600190505b919050565b60035481565b6000806103a28361074a565b90919293945090919293509091925090915090508091505080915050919050565b6000806000806000809054906101000a900473ffffffffffffffffffffffffffffffffffffffff1673ffffffffffffffffffffffffffffffffffffffff161415156105dc576000809054906101000a900473ffffffffffffffffffffffffffffffffffffffff1673ffffffffffffffffffffffffffffffffffffffff1663ec56a3736040518163ffffffff167c010000000000000000000000000000000000000000000000000000000002815260040180807f646f6361757468000000000000000000000000000000000000000000000000008152506020019050602060405180830381600087803b15156104b757600080fd5b5af115156104c457600080fd5b5050506040518051905091508173ffffffffffffffffffffffffffffffffffffffff163373ffffffffffffffffffffffffffffffffffffffff16148015610511575061050f88610396565b155b156105d357600160008960001916600019168152602001908152602001600020905086816000018160001916905550858160010181600019169055508481600201816000191690555083816003018190555042816004018190555060018160050160006101000a81548160ff021916908315150217905550600360008154809291906001019190505550600280548060010182816105af91906107b3565b916000526020600020900160008a90919091509060001916905550600192506105dd565b600092506105dd565b5b505095945050505050565b6105f06107df565b60008060008091505b6002805490508210156106b15761062960028381548110151561061857fe5b90600052602060002090015461074a565b90919293509091925090915090505080935050600090505b600a8110156106a45784600019168360001916141561069f5760028281548110151561066957fe5b9060005260206000209001548482600a8110151561068357fe5b6020020190600019169081600019168152505080806001019150505b610641565b81806001019250506105f9565b505050919050565b6000809054906101000a900473ffffffffffffffffffffffffffffffffffffffff1673ffffffffffffffffffffffffffffffffffffffff163373ffffffffffffffffffffffffffffffffffffffff161415610748576000809054906101000a900473ffffffffffffffffffffffffffffffffffffffff1673ffffffffffffffffffffffffffffffffffffffff16ff5b565b60008060008060008060006001600089600019166000191681526020019081526020016000209050806000015481600101548260020154836003015484600401548560050160009054906101000a900460ff169650965096509650965096505091939550919395565b8154818355818115116107da578183600052602060002091820191016107d9919061080b565b5b505050565b61014060405190810160405280600a905b60008019168152602001906001900390816107f05790505090565b61082d91905b80821115610829576000816000905550600101610811565b5090565b905600a165627a7a72305820110ead2a77228a39bdb9fd5c9fd0d3b8b5ecd12e5097fb221230ff3efedcaa530029",
  "source": "pragma solidity ^0.4.17;\r\n\r\nimport './DocManagerEnabled.sol';\r\n\r\n// The Doc Auth database\r\ncontract DocAuthDB is DougEnabled {\r\n\r\n   //This is where we keep all the contracts\r\n    mapping(bytes32 => Document) private documentLibrary;\r\n\tbytes32[] hashArray;\r\n\r\n    uint public numDocuments;\r\n\r\n    /// Function gets an entry from the document library. Returns the metadata of the document.\r\n    /// Will always return a Document object, even when the document doesn't exist.\r\n    /// Check the property \"isInitialized\" to confirm it's not an empty value.\r\n    function getDocument(bytes32 _hash) public view returns (bytes32,bytes32,bytes32,uint256,uint256, bool) {\r\n        //todo: teruggeven van struct is blijkbaar niet goed. Hervormen naar \"losse variabelen\".\r\n        //https://ethereum.stackexchange.com/questions/3609/returning-a-struct-and-reading-via-web3/3614#3614\r\n        Document storage _document = documentLibrary[_hash];\r\n        return (_document.author, _document.title, _document.email, _document.dateWritten, _document.dateRegistered, _document.isInitialized);\r\n    }\r\n\r\n    function register(bytes32 _hash, bytes32 _author,bytes32 _title,bytes32 _email,uint256 _dateWritten) public returns (bool) {\r\n        if (DOUG != 0x0) {\r\n            address docauth = ContractProvider(DOUG).contracts(\"docauth\");\r\n            if (msg.sender == docauth && !isDocumentRegistered(_hash) ) {\r\n                Document storage _document = documentLibrary[_hash];\r\n                _document.author = _author;\r\n                _document.title = _title;\r\n                _document.email = _email;\r\n                _document.dateWritten = _dateWritten;\r\n                _document.dateRegistered = block.timestamp;\r\n                _document.isInitialized = true;\r\n                numDocuments++;\r\n\t\t\t\thashArray.push(_hash);\r\n                return true;\r\n            }\r\n           else {\r\n               // Return if registration cannot be made\r\n               //msg.sender.send(msg.value);\r\n               return false;\r\n            }\r\n        }\r\n\r\n    }\r\n\r\n    function isDocumentRegistered(bytes32 _hash) public view returns (bool) {\r\n        bool _storedIsInitialized;\r\n        (, , , , , _storedIsInitialized) = getDocument(_hash);\r\n        return _storedIsInitialized;\r\n    }\r\n\r\n\tfunction getDocumentByAuthorName(bytes32 _author) public view returns (bytes32[10] result) {\r\n\t\tbytes32 docAuthor;\r\n\t\tfor (uint i = 0; i < hashArray.length; i++) {\r\n\t\t\t(docAuthor, , , , , ) = getDocument(hashArray[i]);\r\n\t\t\tuint x = 0;\r\n\t\t\twhile (x < result.length) {\r\n\t\t\t\tif (docAuthor == _author ) {\r\n\t\t\t\t\tresult[x] = hashArray[i];\r\n\t\t\t\t\tx++;\r\n\t\t\t\t}\r\n\t\t\t}\r\n\r\n\t\t}\r\n\t}\r\n\r\n    struct Document {\r\n        bytes32  author;\r\n        bytes32  title;\r\n        bytes32  email;\r\n        uint256  dateWritten;\r\n        uint256  dateRegistered;\r\n        bool  isInitialized;\r\n    }\r\n\r\n\r\n}\r\n",
  "sourcePath": "C:\\BDA\\T1\\HowestBDAGroep1-master\\truffle\\contracts\\DocAuthDB.sol",
  "compiler": {
    "name": "solc",
    "version": "0.4.21+commit.dfe3193c.Emscripten.clang"
  },
  "schemaVersion": "2.0.0",
  "updatedAt": "2018-04-15T06:46:28.401Z"
}