{
  "contractName": "DocAuthDB",
  "abi": [
    {
      "constant": false,
      "inputs": [
        {
          "name": "dougAddr",
          "type": "address"
        }
      ],
      "name": "setDOUGAddress",
      "outputs": [
        {
          "name": "result",
          "type": "bool"
        }
      ],
      "payable": false,
      "stateMutability": "nonpayable",
      "type": "function"
    },
    {
      "constant": true,
      "inputs": [],
      "name": "numDocuments",
      "outputs": [
        {
          "name": "",
          "type": "uint256"
        }
      ],
      "payable": false,
      "stateMutability": "view",
      "type": "function"
    },
    {
      "constant": true,
      "inputs": [
        {
          "name": "_hash",
          "type": "bytes32"
        }
      ],
      "name": "isDocumentRegistered",
      "outputs": [
        {
          "name": "",
          "type": "bool"
        }
      ],
      "payable": false,
      "stateMutability": "view",
      "type": "function"
    },
    {
      "constant": false,
      "inputs": [
        {
          "name": "_hash",
          "type": "bytes32"
        },
        {
          "name": "_author",
          "type": "bytes32"
        },
        {
          "name": "_title",
          "type": "bytes32"
        },
        {
          "name": "_email",
          "type": "bytes32"
        },
        {
          "name": "_dateWritten",
          "type": "uint256"
        }
      ],
      "name": "register",
      "outputs": [
        {
          "name": "",
          "type": "bool"
        }
      ],
      "payable": false,
      "stateMutability": "nonpayable",
      "type": "function"
    },
    {
      "constant": true,
      "inputs": [
        {
          "name": "_author",
          "type": "bytes32"
        }
      ],
      "name": "getDocumentByAuthorName",
      "outputs": [
        {
          "name": "result",
          "type": "bytes32[10]"
        }
      ],
      "payable": false,
      "stateMutability": "view",
      "type": "function"
    },
    {
      "constant": false,
      "inputs": [],
      "name": "remove",
      "outputs": [],
      "payable": false,
      "stateMutability": "nonpayable",
      "type": "function"
    },
    {
      "constant": true,
      "inputs": [
        {
          "name": "_hash",
          "type": "bytes32"
        }
      ],
      "name": "getDocument",
      "outputs": [
        {
          "name": "",
          "type": "bytes32"
        },
        {
          "name": "",
          "type": "bytes32"
        },
        {
          "name": "",
          "type": "bytes32"
        },
        {
          "name": "",
          "type": "uint256"
        },
        {
          "name": "",
          "type": "uint256"
        },
        {
          "name": "",
          "type": "bool"
        }
      ],
      "payable": false,
      "stateMutability": "view",
      "type": "function"
    }
  ],
  "bytecode": "0x6060604052341561000f57600080fd5b6108698061001e6000396000f300606060405260043610610083576000357c0100000000000000000000000000000000000000000000000000000000900463ffffffff1680631625df911461008857806341affd45146100d9578063618e6ce6146101025780637a1a5956146101415780637b0e8896146101b0578063a7f4377914610213578063b10d6b4114610228575b600080fd5b341561009357600080fd5b6100bf600480803573ffffffffffffffffffffffffffffffffffffffff169060200190919050506102a2565b604051808215151515815260200191505060405180910390f35b34156100e457600080fd5b6100ec610390565b6040518082815260200191505060405180910390f35b341561010d57600080fd5b610127600480803560001916906020019091905050610396565b604051808215151515815260200191505060405180910390f35b341561014c57600080fd5b6101966004808035600019169060200190919080356000191690602001909190803560001916906020019091908035600019169060200190919080359060200190919050506103c3565b604051808215151515815260200191505060405180910390f35b34156101bb57600080fd5b6101d56004808035600019169060200190919050506105f5565b6040518082600a60200280838360005b838110156102005780820151818401526020810190506101e5565b5050505090500191505060405180910390f35b341561021e57600080fd5b6102266106c6565b005b341561023357600080fd5b61024d600480803560001916906020019091905050610757565b6040518087600019166000191681526020018660001916600019168152602001856000191660001916815260200184815260200183815260200182151515158152602001965050505050505060405180910390f35b6000806000809054906101000a900473ffffffffffffffffffffffffffffffffffffffff1673ffffffffffffffffffffffffffffffffffffffff161415801561033857506000809054906101000a900473ffffffffffffffffffffffffffffffffffffffff1673ffffffffffffffffffffffffffffffffffffffff163373ffffffffffffffffffffffffffffffffffffffff1614155b15610346576000905061038b565b816000806101000a81548173ffffffffffffffffffffffffffffffffffffffff021916908373ffffffffffffffffffffffffffffffffffffffff160217905550600190505b919050565b60035481565b6000806103a283610757565b90919293945090919293509091925090915090508091505080915050919050565b6000806000806000809054906101000a900473ffffffffffffffffffffffffffffffffffffffff1673ffffffffffffffffffffffffffffffffffffffff161415156105e9576000809054906101000a900473ffffffffffffffffffffffffffffffffffffffff1673ffffffffffffffffffffffffffffffffffffffff1663ec56a3736000604051602001526040518163ffffffff167c010000000000000000000000000000000000000000000000000000000002815260040180807f646f6361757468000000000000000000000000000000000000000000000000008152506020019050602060405180830381600087803b15156104c057600080fd5b6102c65a03f115156104d157600080fd5b5050506040518051905091508173ffffffffffffffffffffffffffffffffffffffff163373ffffffffffffffffffffffffffffffffffffffff1614801561051e575061051c88610396565b155b156105e057600160008960001916600019168152602001908152602001600020905086816000018160001916905550858160010181600019169055508481600201816000191690555083816003018190555042816004018190555060018160050160006101000a81548160ff021916908315150217905550600360008154809291906001019190505550600280548060010182816105bc91906107c0565b916000526020600020900160008a90919091509060001916905550600192506105ea565b600092506105ea565b5b505095945050505050565b6105fd6107ec565b60008060008091505b6002805490508210156106be5761063660028381548110151561062557fe5b906000526020600020900154610757565b90919293509091925090915090505080935050600090505b600a8110156106b1578460001916836000191614156106ac5760028281548110151561067657fe5b9060005260206000209001548482600a8110151561069057fe5b6020020190600019169081600019168152505080806001019150505b61064e565b8180600101925050610606565b505050919050565b6000809054906101000a900473ffffffffffffffffffffffffffffffffffffffff1673ffffffffffffffffffffffffffffffffffffffff163373ffffffffffffffffffffffffffffffffffffffff161415610755576000809054906101000a900473ffffffffffffffffffffffffffffffffffffffff1673ffffffffffffffffffffffffffffffffffffffff16ff5b565b60008060008060008060006001600089600019166000191681526020019081526020016000209050806000015481600101548260020154836003015484600401548560050160009054906101000a900460ff169650965096509650965096505091939550919395565b8154818355818115116107e7578183600052602060002091820191016107e69190610818565b5b505050565b61014060405190810160405280600a905b60008019168152602001906001900390816107fd5790505090565b61083a91905b8082111561083657600081600090555060010161081e565b5090565b905600a165627a7a72305820903fab2ea448cf0a59faef6e25d83fe746a05f8cb6e41caacb06cc7b909219a90029",
  "source": "pragma solidity ^0.4.17;\n\nimport './DocManagerEnabled.sol';\n\n// The Doc Auth database\ncontract DocAuthDB is DougEnabled {\n\n   //This is where we keep all the contracts\n    mapping(bytes32 => Document) private documentLibrary;\n\tbytes32[] hashArray;\n\n    uint public numDocuments;\n\n    /// Function gets an entry from the document library. Returns the metadata of the document.\n    /// Will always return a Document object, even when the document doesn't exist.\n    /// Check the property \"isInitialized\" to confirm it's not an empty value.\n    function getDocument(bytes32 _hash) public view returns (bytes32,bytes32,bytes32,uint256,uint256, bool) {\n        //todo: teruggeven van struct is blijkbaar niet goed. Hervormen naar \"losse variabelen\".\n        //https://ethereum.stackexchange.com/questions/3609/returning-a-struct-and-reading-via-web3/3614#3614\n        Document storage _document = documentLibrary[_hash];\n        return (_document.author, _document.title, _document.email, _document.dateWritten, _document.dateRegistered, _document.isInitialized);\n    }\n\n    function register(bytes32 _hash, bytes32 _author,bytes32 _title,bytes32 _email,uint256 _dateWritten) public returns (bool) {\n        if (DOUG != 0x0) {\n            address docauth = ContractProvider(DOUG).contracts(\"docauth\");\n            if (msg.sender == docauth && !isDocumentRegistered(_hash) ) {\n                Document storage _document = documentLibrary[_hash];\n                _document.author = _author;\n                _document.title = _title;\n                _document.email = _email;\n                _document.dateWritten = _dateWritten;\n                _document.dateRegistered = block.timestamp;\n                _document.isInitialized = true;\n                numDocuments++;\n\t\t\t\thashArray.push(_hash);\n                return true;\n            }\n           else {\n               // Return if registration cannot be made\n               //msg.sender.send(msg.value);\n               return false;\n            }\n        }\n\n    }\n\n    function isDocumentRegistered(bytes32 _hash) public view returns (bool) {\n        bool _storedIsInitialized;\n        (, , , , , _storedIsInitialized) = getDocument(_hash);\n        return _storedIsInitialized;\n    }\n\n\tfunction getDocumentByAuthorName(bytes32 _author) public view returns (bytes32[10] result) {\n\t\tbytes32 docAuthor;\n\t\tfor (uint i = 0; i < hashArray.length; i++) {\n\t\t\t(docAuthor, , , , , ) = getDocument(hashArray[i]);\n\t\t\tuint x = 0;\n\t\t\twhile (x < result.length) {\n\t\t\t\tif (docAuthor == _author ) {\n\t\t\t\t\tresult[x] = hashArray[i];\n\t\t\t\t\tx++;\n\t\t\t\t}\n\t\t\t}\n\n\t\t}\n\t}\n\n    struct Document {\n        bytes32  author;\n        bytes32  title;\n        bytes32  email;\n        uint256  dateWritten;\n        uint256  dateRegistered;\n        bool  isInitialized;\n    }\n\n\n}\n",
  "sourcePath": "/Users/thomas/BDA/HowestBDAGroep1/truffle/contracts/DocAuthDB.sol",
  "compiler": {
    "name": "solc",
    "version": "0.4.18+commit.9cf6e910.Emscripten.clang"
  },
  "schemaVersion": "1.0.1",
  "updatedAt": "2018-04-13T22:57:24.284Z"
}