{
  "contractName": "DocManager",
  "abi": [
    {
      "constant": false,
      "inputs": [
        {
          "name": "dougAddr",
          "type": "address"
        }
      ],
      "name": "setDOUGAddress",
      "outputs": [
        {
          "name": "result",
          "type": "bool"
        }
      ],
      "payable": false,
      "stateMutability": "nonpayable",
      "type": "function"
    },
    {
      "constant": false,
      "inputs": [],
      "name": "remove",
      "outputs": [],
      "payable": false,
      "stateMutability": "nonpayable",
      "type": "function"
    },
    {
      "inputs": [],
      "payable": false,
      "stateMutability": "nonpayable",
      "type": "constructor"
    },
    {
      "constant": false,
      "inputs": [
        {
          "name": "_hash",
          "type": "bytes32"
        },
        {
          "name": "_author",
          "type": "bytes32"
        },
        {
          "name": "_title",
          "type": "bytes32"
        },
        {
          "name": "_email",
          "type": "bytes32"
        },
        {
          "name": "_dateWritten",
          "type": "uint256"
        }
      ],
      "name": "register",
      "outputs": [
        {
          "name": "",
          "type": "bool"
        }
      ],
      "payable": false,
      "stateMutability": "nonpayable",
      "type": "function"
    },
    {
      "constant": true,
      "inputs": [
        {
          "name": "_hash",
          "type": "bytes32"
        }
      ],
      "name": "getDocument",
      "outputs": [
        {
          "name": "",
          "type": "bytes32"
        },
        {
          "name": "",
          "type": "bytes32"
        },
        {
          "name": "",
          "type": "bytes32"
        },
        {
          "name": "",
          "type": "uint256"
        },
        {
          "name": "",
          "type": "uint256"
        },
        {
          "name": "",
          "type": "bool"
        }
      ],
      "payable": false,
      "stateMutability": "view",
      "type": "function"
    }
  ],
  "bytecode": "0x6060604052341561000f57600080fd5b33600160006101000a81548173ffffffffffffffffffffffffffffffffffffffff021916908373ffffffffffffffffffffffffffffffffffffffff16021790555061077a8061005f6000396000f300606060405260043610610062576000357c0100000000000000000000000000000000000000000000000000000000900463ffffffff1680631625df91146100675780637a1a5956146100b8578063a7f4377914610127578063b10d6b411461013c575b600080fd5b341561007257600080fd5b61009e600480803573ffffffffffffffffffffffffffffffffffffffff169060200190919050506101b6565b604051808215151515815260200191505060405180910390f35b34156100c357600080fd5b61010d6004808035600019169060200190919080356000191690602001909190803560001916906020019091908035600019169060200190919080359060200190919050506102a4565b604051808215151515815260200191505060405180910390f35b341561013257600080fd5b61013a6104e2565b005b341561014757600080fd5b610161600480803560001916906020019091905050610573565b6040518087600019166000191681526020018660001916600019168152602001856000191660001916815260200184815260200183815260200182151515158152602001965050505050505060405180910390f35b6000806000809054906101000a900473ffffffffffffffffffffffffffffffffffffffff1673ffffffffffffffffffffffffffffffffffffffff161415801561024c57506000809054906101000a900473ffffffffffffffffffffffffffffffffffffffff1673ffffffffffffffffffffffffffffffffffffffff163373ffffffffffffffffffffffffffffffffffffffff1614155b1561025a576000905061029f565b816000806101000a81548173ffffffffffffffffffffffffffffffffffffffff021916908373ffffffffffffffffffffffffffffffffffffffff160217905550600190505b919050565b600080600080600102886000191614806102c5575060006001028760001916145b806102d7575060006001028660001916145b806102e9575060006001028560001916145b806102f45750600084145b1561030257600092506104d7565b6000809054906101000a900473ffffffffffffffffffffffffffffffffffffffff1673ffffffffffffffffffffffffffffffffffffffff1663ec56a3736000604051602001526040518163ffffffff167c010000000000000000000000000000000000000000000000000000000002815260040180807f646f6361757468000000000000000000000000000000000000000000000000008152506020019050602060405180830381600087803b15156103ba57600080fd5b6102c65a03f115156103cb57600080fd5b50505060405180519050915060008273ffffffffffffffffffffffffffffffffffffffff1614156103ff57600092506104d7565b8173ffffffffffffffffffffffffffffffffffffffff16637a1a595689898989896000604051602001526040518663ffffffff167c010000000000000000000000000000000000000000000000000000000002815260040180866000191660001916815260200185600019166000191681526020018460001916600019168152602001836000191660001916815260200182815260200195505050505050602060405180830381600087803b15156104b657600080fd5b6102c65a03f115156104c757600080fd5b5050506040518051905090508092505b505095945050505050565b6000809054906101000a900473ffffffffffffffffffffffffffffffffffffffff1673ffffffffffffffffffffffffffffffffffffffff163373ffffffffffffffffffffffffffffffffffffffff161415610571576000809054906101000a900473ffffffffffffffffffffffffffffffffffffffff1673ffffffffffffffffffffffffffffffffffffffff16ff5b565b60008060008060008060008060008060008060008060009054906101000a900473ffffffffffffffffffffffffffffffffffffffff1673ffffffffffffffffffffffffffffffffffffffff1663ec56a3736000604051602001526040518163ffffffff167c010000000000000000000000000000000000000000000000000000000002815260040180807f646f6361757468000000000000000000000000000000000000000000000000008152506020019050602060405180830381600087803b151561063f57600080fd5b6102c65a03f1151561065057600080fd5b5050506040518051905096508673ffffffffffffffffffffffffffffffffffffffff1663b10d6b418f600060405160c001526040518263ffffffff167c010000000000000000000000000000000000000000000000000000000002815260040180826000191660001916815260200191505060c060405180830381600087803b15156106db57600080fd5b6102c65a03f115156106ec57600080fd5b50505060405180519060200180519060200180519060200180519060200180519060200180519050809650819750829850839950849a50859b505050505050508585858585859c509c509c509c509c509c5050505050505050919395509193955600a165627a7a723058209ed6e5d4d1a97c4f4413c143ce05fa1a529a91370e83efb0226c5cbfc68a46930029",
  "source": "pragma solidity ^0.4.17;\r\n\r\nimport './DougEnabled.sol';\r\nimport './DocAuth.sol';\r\n\r\n// The Doc Manager\r\n\r\ncontract DocManager is DougEnabled {\r\n\r\n    // We still want a owner\r\n    address owner;\r\n\r\n    //Constructor\r\n    function DocManager () public {\r\n        owner  = msg.sender;\r\n    }\r\n\r\n    // Attempt to register the document\r\n    function register(bytes32 _hash, bytes32 _author,bytes32 _title,bytes32 _email,uint256 _dateWritten) public returns (bool) {\r\n        if (_hash == 0x0 || _author == 0x0 || _title == 0x0 || _email == 0x0 || _dateWritten == 0) {\r\n            return false;\r\n        }\r\n\r\n        address docauth = ContractProvider(DOUG).contracts(\"docauth\");\r\n        //address permsdb = ContractProvider(DOUG).contracts(\"permsdb\");\r\n\r\n       // if (docauth == 0x0 || permsdb == 0x0 || PermissionsDB(permsdb).perms(msg.sender) < 1 ) {\r\n           if (docauth == 0X0 ) {\r\n            // if the user send money, we should return it if we can't register\r\n            //msg.sender.send(msg.value);\r\n            return false;\r\n        }\r\n\r\n        // Use the interface to call on the bank contract. We pass the parameters along as well.\r\n\r\n        bool success = DocAuth(docauth).register(_hash, _author, _title, _email, _dateWritten);\r\n\r\n        // if the transaction failed, return the Ether to the caller\r\n        if (!success) {\r\n           // msg.sender.send(msg.value);\r\n        }\r\n        return success;\r\n\r\n    }\r\n\r\n    function getDocument(bytes32 _hash) public view returns (bytes32,bytes32,bytes32,uint256,uint256, bool) {\r\n            address docauth = ContractProvider(DOUG).contracts(\"docauth\");\r\n            bytes32 docAuthor;\r\n            bytes32 docTitle; \r\n            bytes32 docEmail; \r\n            uint256 docdateWritten; \r\n            uint256 docdateRegistered; \r\n            bool docisInitialized;\r\n\r\n\r\n            (docAuthor, docTitle, docEmail, docdateWritten, docdateRegistered, docisInitialized) = DocAuth(docauth).getDocument(_hash);\r\n\r\n\r\n         return (docAuthor, docTitle, docEmail, docdateWritten, docdateRegistered, docisInitialized);\r\n     }\r\n}\r\n",
  "sourcePath": "c:\\Blockchain\\GitHub\\HowestBDAGroep1\\truffle\\contracts\\DocManager.sol",
  "compiler": {
    "name": "solc",
    "version": "0.4.19+commit.c4cbbb05.Emscripten.clang"
  },
  "schemaVersion": "2.0.0",
  "updatedAt": "2018-04-13T15:29:35.970Z"
}