{
  "contractName": "Doug",
  "abi": [
    {
      "constant": true,
      "inputs": [
        {
          "name": "",
          "type": "bytes32"
        }
      ],
      "name": "contracts",
      "outputs": [
        {
          "name": "",
          "type": "address"
        }
      ],
      "payable": false,
      "stateMutability": "view",
      "type": "function"
    },
    {
      "inputs": [],
      "payable": false,
      "stateMutability": "nonpayable",
      "type": "constructor"
    },
    {
      "constant": false,
      "inputs": [
        {
          "name": "name",
          "type": "bytes32"
        },
        {
          "name": "addr",
          "type": "address"
        }
      ],
      "name": "addContract",
      "outputs": [
        {
          "name": "result",
          "type": "bool"
        }
      ],
      "payable": false,
      "stateMutability": "nonpayable",
      "type": "function"
    },
    {
      "constant": false,
      "inputs": [
        {
          "name": "name",
          "type": "bytes32"
        }
      ],
      "name": "removeContract",
      "outputs": [
        {
          "name": "result",
          "type": "bool"
        }
      ],
      "payable": false,
      "stateMutability": "nonpayable",
      "type": "function"
    },
    {
      "constant": false,
      "inputs": [],
      "name": "remove",
      "outputs": [],
      "payable": false,
      "stateMutability": "nonpayable",
      "type": "function"
    }
  ],
  "bytecode": "0x6060604052341561000f57600080fd5b336000806101000a81548173ffffffffffffffffffffffffffffffffffffffff021916908373ffffffffffffffffffffffffffffffffffffffff1602179055506107c48061005e6000396000f300606060405260043610610062576000357c0100000000000000000000000000000000000000000000000000000000900463ffffffff1680635188f99614610067578063a43e04d8146100c5578063a7f4377914610104578063ec56a37314610119575b600080fd5b341561007257600080fd5b6100ab60048080356000191690602001909190803573ffffffffffffffffffffffffffffffffffffffff16906020019091905050610180565b604051808215151515815260200191505060405180910390f35b34156100d057600080fd5b6100ea60048080356000191690602001909190505061030f565b604051808215151515815260200191505060405180910390f35b341561010f57600080fd5b61011761042f565b005b341561012457600080fd5b61013e600480803560001916906020019091905050610765565b604051808273ffffffffffffffffffffffffffffffffffffffff1673ffffffffffffffffffffffffffffffffffffffff16815260200191505060405180910390f35b6000806000809054906101000a900473ffffffffffffffffffffffffffffffffffffffff1673ffffffffffffffffffffffffffffffffffffffff163373ffffffffffffffffffffffffffffffffffffffff161415610308578290508073ffffffffffffffffffffffffffffffffffffffff16631625df91306000604051602001526040518263ffffffff167c0100000000000000000000000000000000000000000000000000000000028152600401808273ffffffffffffffffffffffffffffffffffffffff1673ffffffffffffffffffffffffffffffffffffffff168152602001915050602060405180830381600087803b151561027e57600080fd5b6102c65a03f1151561028f57600080fd5b5050506040518051905015156102a85760009150610307565b8260016000866000191660001916815260200190815260200160002060006101000a81548173ffffffffffffffffffffffffffffffffffffffff021916908373ffffffffffffffffffffffffffffffffffffffff160217905550600191505b5b5092915050565b60008060009054906101000a900473ffffffffffffffffffffffffffffffffffffffff1673ffffffffffffffffffffffffffffffffffffffff163373ffffffffffffffffffffffffffffffffffffffff16141561042a57600060016000846000191660001916815260200190815260200160002060009054906101000a900473ffffffffffffffffffffffffffffffffffffffff1673ffffffffffffffffffffffffffffffffffffffff1614156103c95760009050610429565b600060016000846000191660001916815260200190815260200160002060006101000a81548173ffffffffffffffffffffffffffffffffffffffff021916908373ffffffffffffffffffffffffffffffffffffffff160217905550600190505b5b919050565b60008060008060009054906101000a900473ffffffffffffffffffffffffffffffffffffffff1673ffffffffffffffffffffffffffffffffffffffff163373ffffffffffffffffffffffffffffffffffffffff16141561076057600160007f646f636d616e616765720000000000000000000000000000000000000000000060001916815260200190815260200160002060009054906101000a900473ffffffffffffffffffffffffffffffffffffffff169250600160007f646f63617574680000000000000000000000000000000000000000000000000060001916815260200190815260200160002060009054906101000a900473ffffffffffffffffffffffffffffffffffffffff169150600160007f646f63617574686462000000000000000000000000000000000000000000000060001916815260200190815260200160002060009054906101000a900473ffffffffffffffffffffffffffffffffffffffff16905060008373ffffffffffffffffffffffffffffffffffffffff1614151561062f578273ffffffffffffffffffffffffffffffffffffffff1663a7f437796040518163ffffffff167c0100000000000000000000000000000000000000000000000000000000028152600401600060405180830381600087803b151561061a57600080fd5b6102c65a03f1151561062b57600080fd5b5050505b60008273ffffffffffffffffffffffffffffffffffffffff161415156106c7578173ffffffffffffffffffffffffffffffffffffffff1663a7f437796040518163ffffffff167c0100000000000000000000000000000000000000000000000000000000028152600401600060405180830381600087803b15156106b257600080fd5b6102c65a03f115156106c357600080fd5b5050505b60008173ffffffffffffffffffffffffffffffffffffffff1614151561075f578073ffffffffffffffffffffffffffffffffffffffff1663a7f437796040518163ffffffff167c0100000000000000000000000000000000000000000000000000000000028152600401600060405180830381600087803b151561074a57600080fd5b6102c65a03f1151561075b57600080fd5b5050505b5b505050565b60016020528060005260406000206000915054906101000a900473ffffffffffffffffffffffffffffffffffffffff16815600a165627a7a72305820a22520e80f2d61139de219506e6752dbcceb39406c98f63b12124cd383855a1d0029",
  "source": "pragma solidity ^0.4.17;\r\n\r\nimport './DougEnabled.sol';\r\n\r\n// The Doug contract\r\ncontract Doug {\r\n    address owner;\r\n\r\n    //This is where we keep all the contracts.\r\n    mapping (bytes32 => address) public contracts;\r\n\r\n    modifier onlyOwner { // a modifier to reduce code replication\r\n        if (msg.sender == owner) // this ensures that only the owner can access the function\r\n        _;\r\n    }\r\n    //Constructor\r\n    function Doug() {\r\n        owner = msg.sender;\r\n    }\r\n\r\n    // Add a new contract to Doug. This will overwrite an existing contract.\r\n    function addContract(bytes32 name, address addr) onlyOwner public returns (bool result) {\r\n            DougEnabled de = DougEnabled(addr);\r\n            // Don't add the contract if this does not work.\r\n            if (!de.setDOUGAddress(address(this)) ) {\r\n                return false;\r\n            }\r\n            contracts[name] = addr;\r\n            return true;\r\n    }\r\n\r\n    // Remove a contract from Doug. We could also selfdestruct if we want to.\r\n    function removeContract(bytes32 name) onlyOwner public returns (bool result){\r\n        if (contracts[name] == 0x0) {\r\n            return false;\r\n        }\r\n        contracts[name] = 0x0;\r\n        return true;\r\n    }\r\n\r\n    function remove() onlyOwner public {\r\n        address dm = contracts[\"docmanager\"];\r\n        address docauth = contracts[\"docauth\"];\r\n        address docauthdb = contracts[\"docauthdb\"];\r\n\r\n        // Remove everything\r\n        if (dm != 0x0) {DougEnabled(dm).remove();}\r\n        if (docauth != 0x0) {DougEnabled(docauth).remove();}\r\n        if (docauthdb != 0x0) {DougEnabled(docauthdb).remove();}\r\n    }\r\n}",
  "sourcePath": "c:\\Blockchain\\GitHub\\HowestBDAGroep1\\truffle\\contracts\\Doug.sol",
  "compiler": {
    "name": "solc",
    "version": "0.4.19+commit.c4cbbb05.Emscripten.clang"
  },
  "schemaVersion": "2.0.0",
  "updatedAt": "2018-04-12T17:33:42.532Z"
}