{
  "contractName": "Doug",
  "abi": [
    {
      "constant": true,
      "inputs": [
        {
          "name": "",
          "type": "bytes32"
        }
      ],
      "name": "contracts",
      "outputs": [
        {
          "name": "",
          "type": "address"
        }
      ],
      "payable": false,
      "stateMutability": "view",
      "type": "function"
    },
    {
      "inputs": [],
      "payable": false,
      "stateMutability": "nonpayable",
      "type": "constructor"
    },
    {
      "constant": false,
      "inputs": [
        {
          "name": "name",
          "type": "bytes32"
        },
        {
          "name": "addr",
          "type": "address"
        }
      ],
      "name": "addContract",
      "outputs": [
        {
          "name": "result",
          "type": "bool"
        }
      ],
      "payable": false,
      "stateMutability": "nonpayable",
      "type": "function"
    },
    {
      "constant": true,
      "inputs": [
        {
          "name": "_name",
          "type": "bytes32"
        }
      ],
      "name": "getContract",
      "outputs": [
        {
          "name": "",
          "type": "address"
        }
      ],
      "payable": false,
      "stateMutability": "view",
      "type": "function"
    },
    {
      "constant": false,
      "inputs": [
        {
          "name": "name",
          "type": "bytes32"
        }
      ],
      "name": "removeContract",
      "outputs": [
        {
          "name": "result",
          "type": "bool"
        }
      ],
      "payable": false,
      "stateMutability": "nonpayable",
      "type": "function"
    },
    {
      "constant": false,
      "inputs": [],
      "name": "remove",
      "outputs": [],
      "payable": false,
      "stateMutability": "nonpayable",
      "type": "function"
    }
  ],
  "bytecode": "0x6060604052341561000f57600080fd5b336000806101000a81548173ffffffffffffffffffffffffffffffffffffffff021916908373ffffffffffffffffffffffffffffffffffffffff16021790555061080c8061005e6000396000f30060606040526004361061006d576000357c0100000000000000000000000000000000000000000000000000000000900463ffffffff1680635188f99614610072578063a43e04d8146100d0578063a7f437791461010f578063e16c7d9814610124578063ec56a3731461018b575b600080fd5b341561007d57600080fd5b6100b660048080356000191690602001909190803573ffffffffffffffffffffffffffffffffffffffff169060200190919050506101f2565b604051808215151515815260200191505060405180910390f35b34156100db57600080fd5b6100f560048080356000191690602001909190505061031e565b604051808215151515815260200191505060405180910390f35b341561011a57600080fd5b61012261043e565b005b341561012f57600080fd5b610149600480803560001916906020019091905050610768565b604051808273ffffffffffffffffffffffffffffffffffffffff1673ffffffffffffffffffffffffffffffffffffffff16815260200191505060405180910390f35b341561019657600080fd5b6101b06004808035600019169060200190919050506107ad565b604051808273ffffffffffffffffffffffffffffffffffffffff1673ffffffffffffffffffffffffffffffffffffffff16815260200191505060405180910390f35b6000808290508073ffffffffffffffffffffffffffffffffffffffff16631625df91306040518263ffffffff167c0100000000000000000000000000000000000000000000000000000000028152600401808273ffffffffffffffffffffffffffffffffffffffff1673ffffffffffffffffffffffffffffffffffffffff168152602001915050602060405180830381600087803b151561029257600080fd5b5af1151561029f57600080fd5b5050506040518051905015156102b85760009150610317565b8260016000866000191660001916815260200190815260200160002060006101000a81548173ffffffffffffffffffffffffffffffffffffffff021916908373ffffffffffffffffffffffffffffffffffffffff160217905550600191505b5092915050565b60008060009054906101000a900473ffffffffffffffffffffffffffffffffffffffff1673ffffffffffffffffffffffffffffffffffffffff163373ffffffffffffffffffffffffffffffffffffffff16141561043957600060016000846000191660001916815260200190815260200160002060009054906101000a900473ffffffffffffffffffffffffffffffffffffffff1673ffffffffffffffffffffffffffffffffffffffff1614156103d85760009050610438565b600060016000846000191660001916815260200190815260200160002060006101000a81548173ffffffffffffffffffffffffffffffffffffffff021916908373ffffffffffffffffffffffffffffffffffffffff160217905550600190505b5b919050565b60008060008060009054906101000a900473ffffffffffffffffffffffffffffffffffffffff1673ffffffffffffffffffffffffffffffffffffffff163373ffffffffffffffffffffffffffffffffffffffff16141561076357600160007f646f636d616e616765720000000000000000000000000000000000000000000060001916815260200190815260200160002060009054906101000a900473ffffffffffffffffffffffffffffffffffffffff169250600160007f646f63617574680000000000000000000000000000000000000000000000000060001916815260200190815260200160002060009054906101000a900473ffffffffffffffffffffffffffffffffffffffff169150600160007f646f63617574686462000000000000000000000000000000000000000000000060001916815260200190815260200160002060009054906101000a900473ffffffffffffffffffffffffffffffffffffffff16905060008373ffffffffffffffffffffffffffffffffffffffff1614151561063a578273ffffffffffffffffffffffffffffffffffffffff1663a7f437796040518163ffffffff167c0100000000000000000000000000000000000000000000000000000000028152600401600060405180830381600087803b151561062957600080fd5b5af1151561063657600080fd5b5050505b60008273ffffffffffffffffffffffffffffffffffffffff161415156106ce578173ffffffffffffffffffffffffffffffffffffffff1663a7f437796040518163ffffffff167c0100000000000000000000000000000000000000000000000000000000028152600401600060405180830381600087803b15156106bd57600080fd5b5af115156106ca57600080fd5b5050505b60008173ffffffffffffffffffffffffffffffffffffffff16141515610762578073ffffffffffffffffffffffffffffffffffffffff1663a7f437796040518163ffffffff167c0100000000000000000000000000000000000000000000000000000000028152600401600060405180830381600087803b151561075157600080fd5b5af1151561075e57600080fd5b5050505b5b505050565b600060016000836000191660001916815260200190815260200160002060009054906101000a900473ffffffffffffffffffffffffffffffffffffffff169050919050565b60016020528060005260406000206000915054906101000a900473ffffffffffffffffffffffffffffffffffffffff16815600a165627a7a72305820d1c32763a5bcb58f057e3816e583d960069da5ccbcabc65bd89482611e7e78a00029",
  "source": "pragma solidity ^0.4.17;\r\n\r\nimport './DougEnabled.sol';\r\n\r\n// The Doug contract\r\ncontract Doug {\r\n    address owner;\r\n\r\n    //This is where we keep all the contracts.\r\n    mapping (bytes32 => address) public contracts;\r\n\r\n    modifier onlyOwner { // a modifier to reduce code replication\r\n        if (msg.sender == owner) // this ensures that only the owner can access the function\r\n        _;\r\n    }\r\n    //Constructor\r\n    function Doug() public {\r\n        owner = msg.sender;\r\n    }\r\n\r\n    // Add a new contract to Doug. This will overwrite an existing contract.\r\n    function addContract(bytes32 name, address addr) public returns (bool result) {\r\n            DougEnabled de = DougEnabled(addr);\r\n            // Don't add the contract if this does not work.\r\n            if (!de.setDOUGAddress(address(this)) ) {\r\n                return false;\r\n            }\r\n            contracts[name] = addr;\r\n            return true;\r\n    }\r\n\r\n    // get a contract from doug by name\r\n    function getContract(bytes32 _name) external view returns (address) {\r\n      return contracts[_name];\r\n    }\r\n\r\n    // Remove a contract from Doug. We could also selfdestruct if we want to.\r\n    function removeContract(bytes32 name) onlyOwner public returns (bool result){\r\n        if (contracts[name] == 0x0) {\r\n            return false;\r\n        }\r\n        contracts[name] = 0x0;\r\n        return true;\r\n    }\r\n\r\n    function remove() onlyOwner public {\r\n        address dm = contracts[\"docmanager\"];\r\n        address docauth = contracts[\"docauth\"];\r\n        address docauthdb = contracts[\"docauthdb\"];\r\n\r\n        // Remove everything\r\n        if (dm != 0x0) {DougEnabled(dm).remove();}\r\n        if (docauth != 0x0) {DougEnabled(docauth).remove();}\r\n        if (docauthdb != 0x0) {DougEnabled(docauthdb).remove();}\r\n    }\r\n}\r\n",
  "sourcePath": "C:\\BDA\\T1\\HowestBDAGroep1-master\\truffle\\contracts\\Doug.sol",
  "compiler": {
    "name": "solc",
    "version": "0.4.21+commit.dfe3193c.Emscripten.clang"
  },
  "schemaVersion": "2.0.0",
  "updatedAt": "2018-04-23T18:58:24.311Z"
}