{
  "contractName": "Doug",
  "abi": [
    {
      "constant": false,
      "inputs": [
        {
          "name": "name",
          "type": "bytes32"
        },
        {
          "name": "addr",
          "type": "address"
        }
      ],
      "name": "addContract",
      "outputs": [
        {
          "name": "result",
          "type": "bool"
        }
      ],
      "payable": false,
      "stateMutability": "nonpayable",
      "type": "function"
    },
    {
      "constant": false,
      "inputs": [
        {
          "name": "name",
          "type": "bytes32"
        }
      ],
      "name": "removeContract",
      "outputs": [
        {
          "name": "result",
          "type": "bool"
        }
      ],
      "payable": false,
      "stateMutability": "nonpayable",
      "type": "function"
    },
    {
      "constant": false,
      "inputs": [],
      "name": "remove",
      "outputs": [],
      "payable": false,
      "stateMutability": "nonpayable",
      "type": "function"
    },
    {
      "constant": true,
      "inputs": [
        {
          "name": "_name",
          "type": "bytes32"
        }
      ],
      "name": "getContract",
      "outputs": [
        {
          "name": "",
          "type": "address"
        }
      ],
      "payable": false,
      "stateMutability": "view",
      "type": "function"
    },
    {
      "constant": true,
      "inputs": [
        {
          "name": "",
          "type": "bytes32"
        }
      ],
      "name": "contracts",
      "outputs": [
        {
          "name": "",
          "type": "address"
        }
      ],
      "payable": false,
      "stateMutability": "view",
      "type": "function"
    },
    {
      "inputs": [],
      "payable": false,
      "stateMutability": "nonpayable",
      "type": "constructor"
    }
  ],
  "bytecode": "0x6060604052341561000f57600080fd5b336000806101000a81548173ffffffffffffffffffffffffffffffffffffffff021916908373ffffffffffffffffffffffffffffffffffffffff1602179055506108258061005e6000396000f30060606040526004361061006d576000357c0100000000000000000000000000000000000000000000000000000000900463ffffffff1680635188f99614610072578063a43e04d8146100d0578063a7f437791461010f578063e16c7d9814610124578063ec56a3731461018b575b600080fd5b341561007d57600080fd5b6100b660048080356000191690602001909190803573ffffffffffffffffffffffffffffffffffffffff169060200190919050506101f2565b604051808215151515815260200191505060405180910390f35b34156100db57600080fd5b6100f560048080356000191690602001909190505061032b565b604051808215151515815260200191505060405180910390f35b341561011a57600080fd5b61012261044b565b005b341561012f57600080fd5b610149600480803560001916906020019091905050610781565b604051808273ffffffffffffffffffffffffffffffffffffffff1673ffffffffffffffffffffffffffffffffffffffff16815260200191505060405180910390f35b341561019657600080fd5b6101b06004808035600019169060200190919050506107c6565b604051808273ffffffffffffffffffffffffffffffffffffffff1673ffffffffffffffffffffffffffffffffffffffff16815260200191505060405180910390f35b6000808290508073ffffffffffffffffffffffffffffffffffffffff16631625df91306000604051602001526040518263ffffffff167c0100000000000000000000000000000000000000000000000000000000028152600401808273ffffffffffffffffffffffffffffffffffffffff1673ffffffffffffffffffffffffffffffffffffffff168152602001915050602060405180830381600087803b151561029b57600080fd5b6102c65a03f115156102ac57600080fd5b5050506040518051905015156102c55760009150610324565b8260016000866000191660001916815260200190815260200160002060006101000a81548173ffffffffffffffffffffffffffffffffffffffff021916908373ffffffffffffffffffffffffffffffffffffffff160217905550600191505b5092915050565b60008060009054906101000a900473ffffffffffffffffffffffffffffffffffffffff1673ffffffffffffffffffffffffffffffffffffffff163373ffffffffffffffffffffffffffffffffffffffff16141561044657600060016000846000191660001916815260200190815260200160002060009054906101000a900473ffffffffffffffffffffffffffffffffffffffff1673ffffffffffffffffffffffffffffffffffffffff1614156103e55760009050610445565b600060016000846000191660001916815260200190815260200160002060006101000a81548173ffffffffffffffffffffffffffffffffffffffff021916908373ffffffffffffffffffffffffffffffffffffffff160217905550600190505b5b919050565b60008060008060009054906101000a900473ffffffffffffffffffffffffffffffffffffffff1673ffffffffffffffffffffffffffffffffffffffff163373ffffffffffffffffffffffffffffffffffffffff16141561077c57600160007f646f636d616e616765720000000000000000000000000000000000000000000060001916815260200190815260200160002060009054906101000a900473ffffffffffffffffffffffffffffffffffffffff169250600160007f646f63617574680000000000000000000000000000000000000000000000000060001916815260200190815260200160002060009054906101000a900473ffffffffffffffffffffffffffffffffffffffff169150600160007f646f63617574686462000000000000000000000000000000000000000000000060001916815260200190815260200160002060009054906101000a900473ffffffffffffffffffffffffffffffffffffffff16905060008373ffffffffffffffffffffffffffffffffffffffff1614151561064b578273ffffffffffffffffffffffffffffffffffffffff1663a7f437796040518163ffffffff167c0100000000000000000000000000000000000000000000000000000000028152600401600060405180830381600087803b151561063657600080fd5b6102c65a03f1151561064757600080fd5b5050505b60008273ffffffffffffffffffffffffffffffffffffffff161415156106e3578173ffffffffffffffffffffffffffffffffffffffff1663a7f437796040518163ffffffff167c0100000000000000000000000000000000000000000000000000000000028152600401600060405180830381600087803b15156106ce57600080fd5b6102c65a03f115156106df57600080fd5b5050505b60008173ffffffffffffffffffffffffffffffffffffffff1614151561077b578073ffffffffffffffffffffffffffffffffffffffff1663a7f437796040518163ffffffff167c0100000000000000000000000000000000000000000000000000000000028152600401600060405180830381600087803b151561076657600080fd5b6102c65a03f1151561077757600080fd5b5050505b5b505050565b600060016000836000191660001916815260200190815260200160002060009054906101000a900473ffffffffffffffffffffffffffffffffffffffff169050919050565b60016020528060005260406000206000915054906101000a900473ffffffffffffffffffffffffffffffffffffffff16815600a165627a7a72305820c22db6714e68efab9a93a3b39de2b4c07bd5d216a4868d8c76634e0b9ae6cd160029",
  "source": "pragma solidity ^0.4.17;\n\nimport './DougEnabled.sol';\n\n// The Doug contract\ncontract Doug {\n    address owner;\n\n    //This is where we keep all the contracts.\n    mapping (bytes32 => address) public contracts;\n\n    modifier onlyOwner { // a modifier to reduce code replication\n        if (msg.sender == owner) // this ensures that only the owner can access the function\n        _;\n    }\n    //Constructor\n    function Doug() public {\n        owner = msg.sender;\n    }\n\n    // Add a new contract to Doug. This will overwrite an existing contract.\n    function addContract(bytes32 name, address addr) public returns (bool result) {\n            DougEnabled de = DougEnabled(addr);\n            // Don't add the contract if this does not work.\n            if (!de.setDOUGAddress(address(this)) ) {\n                return false;\n            }\n            contracts[name] = addr;\n            return true;\n    }\n\n    // get a contract from doug by name\n    function getContract(bytes32 _name) external view returns (address) {\n      return contracts[_name];\n    }\n\n    // Remove a contract from Doug. We could also selfdestruct if we want to.\n    function removeContract(bytes32 name) onlyOwner public returns (bool result){\n        if (contracts[name] == 0x0) {\n            return false;\n        }\n        contracts[name] = 0x0;\n        return true;\n    }\n\n    function remove() onlyOwner public {\n        address dm = contracts[\"docmanager\"];\n        address docauth = contracts[\"docauth\"];\n        address docauthdb = contracts[\"docauthdb\"];\n\n        // Remove everything\n        if (dm != 0x0) {DougEnabled(dm).remove();}\n        if (docauth != 0x0) {DougEnabled(docauth).remove();}\n        if (docauthdb != 0x0) {DougEnabled(docauthdb).remove();}\n    }\n}\n",
  "sourcePath": "/Users/thomas/BDA/HowestBDAGroep1/truffle/contracts/Doug.sol",
  "compiler": {
    "name": "solc",
    "version": "0.4.18+commit.9cf6e910.Emscripten.clang"
  },
  "schemaVersion": "1.0.1",
  "updatedAt": "2018-04-13T21:22:18.635Z"
}