{
  "contractName": "DougEnabled",
  "abi": [
    {
      "constant": false,
      "inputs": [
        {
          "name": "dougAddr",
          "type": "address"
        }
      ],
      "name": "setDOUGAddress",
      "outputs": [
        {
          "name": "result",
          "type": "bool"
        }
      ],
      "payable": false,
      "stateMutability": "nonpayable",
      "type": "function"
    },
    {
      "constant": false,
      "inputs": [],
      "name": "remove",
      "outputs": [],
      "payable": false,
      "stateMutability": "nonpayable",
      "type": "function"
    }
  ],
  "bytecode": "0x6060604052341561000f57600080fd5b6102628061001e6000396000f30060606040526004361061004c576000357c0100000000000000000000000000000000000000000000000000000000900463ffffffff1680631625df9114610051578063a7f43779146100a2575b600080fd5b341561005c57600080fd5b610088600480803573ffffffffffffffffffffffffffffffffffffffff169060200190919050506100b7565b604051808215151515815260200191505060405180910390f35b34156100ad57600080fd5b6100b56101a5565b005b6000806000809054906101000a900473ffffffffffffffffffffffffffffffffffffffff1673ffffffffffffffffffffffffffffffffffffffff161415801561014d57506000809054906101000a900473ffffffffffffffffffffffffffffffffffffffff1673ffffffffffffffffffffffffffffffffffffffff163373ffffffffffffffffffffffffffffffffffffffff1614155b1561015b57600090506101a0565b816000806101000a81548173ffffffffffffffffffffffffffffffffffffffff021916908373ffffffffffffffffffffffffffffffffffffffff160217905550600190505b919050565b6000809054906101000a900473ffffffffffffffffffffffffffffffffffffffff1673ffffffffffffffffffffffffffffffffffffffff163373ffffffffffffffffffffffffffffffffffffffff161415610234576000809054906101000a900473ffffffffffffffffffffffffffffffffffffffff1673ffffffffffffffffffffffffffffffffffffffff16ff5b5600a165627a7a723058209d63f79d9911e6cd7831f6465608aeab41354bd23a0df867f494eebded70ab2e0029",
  "source": "pragma solidity ^0.4.17;\n\nimport './ContractProvider.sol'; \n\n// Base class for contracts that are used in a doug system.\n\ncontract DougEnabled {\n    address DOUG;\n\n    function setDOUGAddress(address dougAddr) public returns (bool result) {\n        // Once the doug address is set, don't allow it to be set again, except by the doug contract itself\n        if (DOUG != 0x0 && msg.sender != DOUG) {\n            return false;\n        }\n        DOUG = dougAddr;\n        return true;\n    }\n\n    // Makes it so that Doug is the only contract that may kill it\n    function remove() public {\n        if (msg.sender == DOUG) {\n            selfdestruct(DOUG);\n        }\n    }\n}",
  "sourcePath": "/Users/thomas/BDA/HowestBDAGroep1/truffle/contracts/DougEnabled.sol",
  "compiler": {
    "name": "solc",
    "version": "0.4.18+commit.9cf6e910.Emscripten.clang"
  },
  "schemaVersion": "1.0.1",
  "updatedAt": "2018-04-13T22:57:24.310Z"
}